{
  "address": "0x66A8a6Ab9778D8A2D8bB5D28c7319c246262677A",
  "abi": [
    {
      "inputs": [
        {
          "internalType": "address payable",
          "name": "devWallet_",
          "type": "address"
        },
        {
          "internalType": "address",
          "name": "_USDC",
          "type": "address"
        }
      ],
      "stateMutability": "nonpayable",
      "type": "constructor"
    },
    {
      "anonymous": false,
      "inputs": [
        {
          "indexed": true,
          "internalType": "address",
          "name": "owner",
          "type": "address"
        },
        {
          "indexed": true,
          "internalType": "address",
          "name": "approved",
          "type": "address"
        },
        {
          "indexed": true,
          "internalType": "uint256",
          "name": "tokenId",
          "type": "uint256"
        }
      ],
      "name": "Approval",
      "type": "event"
    },
    {
      "anonymous": false,
      "inputs": [
        {
          "indexed": true,
          "internalType": "address",
          "name": "owner",
          "type": "address"
        },
        {
          "indexed": true,
          "internalType": "address",
          "name": "operator",
          "type": "address"
        },
        {
          "indexed": false,
          "internalType": "bool",
          "name": "approved",
          "type": "bool"
        }
      ],
      "name": "ApprovalForAll",
      "type": "event"
    },
    {
      "anonymous": false,
      "inputs": [
        {
          "indexed": true,
          "internalType": "address",
          "name": "previousOwner",
          "type": "address"
        },
        {
          "indexed": true,
          "internalType": "address",
          "name": "newOwner",
          "type": "address"
        }
      ],
      "name": "OwnershipTransferred",
      "type": "event"
    },
    {
      "anonymous": false,
      "inputs": [
        {
          "indexed": true,
          "internalType": "address",
          "name": "from",
          "type": "address"
        },
        {
          "indexed": true,
          "internalType": "address",
          "name": "to",
          "type": "address"
        },
        {
          "indexed": true,
          "internalType": "uint256",
          "name": "tokenId",
          "type": "uint256"
        }
      ],
      "name": "Transfer",
      "type": "event"
    },
    {
      "inputs": [],
      "name": "USDC",
      "outputs": [
        {
          "internalType": "address",
          "name": "",
          "type": "address"
        }
      ],
      "stateMutability": "view",
      "type": "function"
    },
    {
      "inputs": [
        {
          "internalType": "address",
          "name": "to",
          "type": "address"
        },
        {
          "internalType": "uint256",
          "name": "tokenId",
          "type": "uint256"
        }
      ],
      "name": "approve",
      "outputs": [],
      "stateMutability": "nonpayable",
      "type": "function"
    },
    {
      "inputs": [
        {
          "internalType": "address",
          "name": "owner",
          "type": "address"
        }
      ],
      "name": "balanceOf",
      "outputs": [
        {
          "internalType": "uint256",
          "name": "",
          "type": "uint256"
        }
      ],
      "stateMutability": "view",
      "type": "function"
    },
    {
      "inputs": [
        {
          "internalType": "uint256",
          "name": "_tokenId",
          "type": "uint256"
        }
      ],
      "name": "buyDragonUtility",
      "outputs": [],
      "stateMutability": "nonpayable",
      "type": "function"
    },
    {
      "inputs": [],
      "name": "devWallet",
      "outputs": [
        {
          "internalType": "address",
          "name": "",
          "type": "address"
        }
      ],
      "stateMutability": "view",
      "type": "function"
    },
    {
      "inputs": [
        {
          "internalType": "uint256",
          "name": "tokenId",
          "type": "uint256"
        }
      ],
      "name": "getApproved",
      "outputs": [
        {
          "internalType": "address",
          "name": "",
          "type": "address"
        }
      ],
      "stateMutability": "view",
      "type": "function"
    },
    {
      "inputs": [
        {
          "internalType": "address",
          "name": "owner",
          "type": "address"
        },
        {
          "internalType": "address",
          "name": "operator",
          "type": "address"
        }
      ],
      "name": "isApprovedForAll",
      "outputs": [
        {
          "internalType": "bool",
          "name": "",
          "type": "bool"
        }
      ],
      "stateMutability": "view",
      "type": "function"
    },
    {
      "inputs": [],
      "name": "itemCost",
      "outputs": [
        {
          "internalType": "uint256",
          "name": "",
          "type": "uint256"
        }
      ],
      "stateMutability": "view",
      "type": "function"
    },
    {
      "inputs": [
        {
          "internalType": "string",
          "name": "tokenURI",
          "type": "string"
        }
      ],
      "name": "mintPlank",
      "outputs": [
        {
          "internalType": "uint256",
          "name": "",
          "type": "uint256"
        }
      ],
      "stateMutability": "nonpayable",
      "type": "function"
    },
    {
      "inputs": [],
      "name": "name",
      "outputs": [
        {
          "internalType": "string",
          "name": "",
          "type": "string"
        }
      ],
      "stateMutability": "view",
      "type": "function"
    },
    {
      "inputs": [],
      "name": "owner",
      "outputs": [
        {
          "internalType": "address",
          "name": "",
          "type": "address"
        }
      ],
      "stateMutability": "view",
      "type": "function"
    },
    {
      "inputs": [
        {
          "internalType": "uint256",
          "name": "tokenId",
          "type": "uint256"
        }
      ],
      "name": "ownerOf",
      "outputs": [
        {
          "internalType": "address",
          "name": "",
          "type": "address"
        }
      ],
      "stateMutability": "view",
      "type": "function"
    },
    {
      "inputs": [],
      "name": "renounceOwnership",
      "outputs": [],
      "stateMutability": "nonpayable",
      "type": "function"
    },
    {
      "inputs": [
        {
          "internalType": "address",
          "name": "from",
          "type": "address"
        },
        {
          "internalType": "address",
          "name": "to",
          "type": "address"
        },
        {
          "internalType": "uint256",
          "name": "tokenId",
          "type": "uint256"
        }
      ],
      "name": "safeTransferFrom",
      "outputs": [],
      "stateMutability": "nonpayable",
      "type": "function"
    },
    {
      "inputs": [
        {
          "internalType": "address",
          "name": "from",
          "type": "address"
        },
        {
          "internalType": "address",
          "name": "to",
          "type": "address"
        },
        {
          "internalType": "uint256",
          "name": "tokenId",
          "type": "uint256"
        },
        {
          "internalType": "bytes",
          "name": "_data",
          "type": "bytes"
        }
      ],
      "name": "safeTransferFrom",
      "outputs": [],
      "stateMutability": "nonpayable",
      "type": "function"
    },
    {
      "inputs": [
        {
          "internalType": "address",
          "name": "operator",
          "type": "address"
        },
        {
          "internalType": "bool",
          "name": "approved",
          "type": "bool"
        }
      ],
      "name": "setApprovalForAll",
      "outputs": [],
      "stateMutability": "nonpayable",
      "type": "function"
    },
    {
      "inputs": [
        {
          "internalType": "uint256",
          "name": "_cost",
          "type": "uint256"
        }
      ],
      "name": "setItemCost",
      "outputs": [],
      "stateMutability": "nonpayable",
      "type": "function"
    },
    {
      "inputs": [
        {
          "internalType": "bytes4",
          "name": "interfaceId",
          "type": "bytes4"
        }
      ],
      "name": "supportsInterface",
      "outputs": [
        {
          "internalType": "bool",
          "name": "",
          "type": "bool"
        }
      ],
      "stateMutability": "view",
      "type": "function"
    },
    {
      "inputs": [],
      "name": "symbol",
      "outputs": [
        {
          "internalType": "string",
          "name": "",
          "type": "string"
        }
      ],
      "stateMutability": "view",
      "type": "function"
    },
    {
      "inputs": [
        {
          "internalType": "uint256",
          "name": "tokenId",
          "type": "uint256"
        }
      ],
      "name": "tokenURI",
      "outputs": [
        {
          "internalType": "string",
          "name": "",
          "type": "string"
        }
      ],
      "stateMutability": "view",
      "type": "function"
    },
    {
      "inputs": [
        {
          "internalType": "address",
          "name": "from",
          "type": "address"
        },
        {
          "internalType": "address",
          "name": "to",
          "type": "address"
        },
        {
          "internalType": "uint256",
          "name": "tokenId",
          "type": "uint256"
        }
      ],
      "name": "transferFrom",
      "outputs": [],
      "stateMutability": "nonpayable",
      "type": "function"
    },
    {
      "inputs": [
        {
          "internalType": "address",
          "name": "newOwner",
          "type": "address"
        }
      ],
      "name": "transferOwnership",
      "outputs": [],
      "stateMutability": "nonpayable",
      "type": "function"
    }
  ],
  "transactionHash": "0x6718da9e763bfc8dc263e63012f4a33cea19a58b15125d0f3458e71498864971",
  "args": [
    "0x6C641CE6A7216F12d28692f9d8b2BDcdE812eD2b",
    "0xF143436dE21a03c50267dBf64F2B7D6d14dEeA0F"
  ],
  "solcInputHash": "e4301e1a08bd497065b889f4f0670643",
  "bytecode": "0x60a06040523480156200001157600080fd5b5060405162002124380380620021248339810160408190526200003491620001f0565b604080518082018252600e81526d447261676f6e205574696c69747960901b60208083019182528351808501909452600384526244475560e81b90840152815191929162000085916000916200014a565b5080516200009b9060019060208401906200014a565b505050620000b8620000b2620000f460201b60201c565b620000f8565b6001600855600a80546001600160a01b0319166001600160a01b03939093169290921790915560601b6001600160601b03191660805262000284565b3390565b600780546001600160a01b038381166001600160a01b0319831681179093556040519116919082907f8be0079c531659141344cd1fd0a4f28419497f9722a3daafe3b4186f6b6457e090600090a35050565b82805462000158906200022e565b90600052602060002090601f0160209004810192826200017c5760008555620001c7565b82601f106200019757805160ff1916838001178555620001c7565b82800160010185558215620001c7579182015b82811115620001c7578251825591602001919060010190620001aa565b50620001d5929150620001d9565b5090565b5b80821115620001d55760008155600101620001da565b6000806040838503121562000203578182fd5b825162000210816200026b565b602084015190925062000223816200026b565b809150509250929050565b6002810460018216806200024357607f821691505b602082108114156200026557634e487b7160e01b600052602260045260246000fd5b50919050565b6001600160a01b03811681146200028157600080fd5b50565b60805160601c611e7a620002aa60003960008181610616015261078a0152611e7a6000f3fe608060405234801561001057600080fd5b50600436106101625760003560e01c80638da5cb5b116100c8578063b88d4fde1161008c578063e6d5622f11610066578063e6d5622f146102c2578063e985e9c5146102d5578063f2fde38b146102e857610162565b8063b88d4fde14610294578063c87b56dd146102a7578063e352098a146102ba57610162565b80638da5cb5b146102565780638ea5220f1461025e57806395d89b4114610266578063a22cb4651461026e578063aae4396e1461028157610162565b80633f7a03f91161012a57806370a082311161010457806370a0823114610226578063715018a61461024657806389a302711461024e57610162565b80633f7a03f9146101ed57806342842e0e146102005780636352211e1461021357610162565b806301ffc9a71461016757806306fdde0314610190578063081812fc146101a5578063095ea7b3146101c557806323b872dd146101da575b600080fd5b61017a610175366004611516565b6102fb565b6040516101879190611697565b60405180910390f35b610198610343565b60405161018791906116a2565b6101b86101b3366004611594565b6103d5565b6040516101879190611623565b6101d86101d33660046114d1565b610421565b005b6101d86101e83660046113e7565b6104b9565b6101d86101fb366004611594565b6104f1565b6101d861020e3660046113e7565b610535565b6101b8610221366004611594565b610550565b61023961023436600461139b565b610585565b6040516101879190611cfc565b6101d86105c9565b6101b8610614565b6101b8610638565b6101b8610647565b610198610656565b6101d861027c36600461149b565b610665565b6101d861028f366004611594565b610733565b6101d86102a2366004611422565b6107eb565b6101986102b5366004611594565b61082a565b61023961094b565b6102396102d036600461154e565b610951565b61017a6102e33660046113b5565b6109e7565b6101d86102f636600461139b565b610a15565b60006001600160e01b031982166380ac58cd60e01b148061032c57506001600160e01b03198216635b5e139f60e01b145b8061033b575061033b82610a86565b90505b919050565b60606000805461035290611d74565b80601f016020809104026020016040519081016040528092919081815260200182805461037e90611d74565b80156103cb5780601f106103a0576101008083540402835291602001916103cb565b820191906000526020600020905b8154815290600101906020018083116103ae57829003601f168201915b5050505050905090565b60006103e082610a9f565b6104055760405162461bcd60e51b81526004016103fc90611ac9565b60405180910390fd5b506000908152600460205260409020546001600160a01b031690565b600061042c82610550565b9050806001600160a01b0316836001600160a01b031614156104605760405162461bcd60e51b81526004016103fc90611bf0565b806001600160a01b0316610472610abc565b6001600160a01b0316148061048e575061048e816102e3610abc565b6104aa5760405162461bcd60e51b81526004016103fc906118ea565b6104b48383610ac0565b505050565b6104ca6104c4610abc565b82610b2e565b6104e65760405162461bcd60e51b81526004016103fc90611c31565b6104b4838383610bab565b6104f9610abc565b6001600160a01b031661050a610638565b6001600160a01b0316146105305760405162461bcd60e51b81526004016103fc90611b15565b600b55565b6104b4838383604051806020016040528060008152506107eb565b6000818152600260205260408120546001600160a01b03168061033b5760405162461bcd60e51b81526004016103fc90611991565b60006001600160a01b0382166105ad5760405162461bcd60e51b81526004016103fc90611947565b506001600160a01b031660009081526003602052604090205490565b6105d1610abc565b6001600160a01b03166105e2610638565b6001600160a01b0316146106085760405162461bcd60e51b81526004016103fc90611b15565b6106126000610cd8565b565b7f000000000000000000000000000000000000000000000000000000000000000081565b6007546001600160a01b031690565b600a546001600160a01b031690565b60606001805461035290611d74565b61066d610abc565b6001600160a01b0316826001600160a01b0316141561069e5760405162461bcd60e51b81526004016103fc90611830565b80600560006106ab610abc565b6001600160a01b03908116825260208083019390935260409182016000908120918716808252919093529120805460ff1916921515929092179091556106ef610abc565b6001600160a01b03167f17307eab39ab6107e8899845ad3d59bd9653f200f220920489ca2b5937696c31836040516107279190611697565b60405180910390a35050565b600260085414156107565760405162461bcd60e51b81526004016103fc90611c8e565b60026008819055610768610234610abc565b106107855760405162461bcd60e51b81526004016103fc906118b3565b6107c87f00000000000000000000000000000000000000000000000000000000000000006107b1610abc565b600a54600b546001600160a01b0390911690610d2a565b6107e330338360405180602001604052806000815250610e2f565b506001600855565b6107fc6107f6610abc565b83610b2e565b6108185760405162461bcd60e51b81526004016103fc90611c31565b61082484848484610e2f565b50505050565b606061083582610a9f565b6108515760405162461bcd60e51b81526004016103fc90611a6c565b6000828152600660205260408120805461086a90611d74565b80601f016020809104026020016040519081016040528092919081815260200182805461089690611d74565b80156108e35780601f106108b8576101008083540402835291602001916108e3565b820191906000526020600020905b8154815290600101906020018083116108c657829003601f168201915b5050505050905060006108f4610e62565b90508051600014156109085750905061033e565b81511561093a5780826040516020016109229291906115f4565b6040516020818303038152906040529250505061033e565b61094384610e74565b949350505050565b600b5490565b600061095b610abc565b6001600160a01b031661096c610638565b6001600160a01b0316146109925760405162461bcd60e51b81526004016103fc90611b15565b601961099e6009610ef7565b106109bb5760405162461bcd60e51b81526004016103fc90611cc5565b6109c56009610efb565b60006109d16009610ef7565b90506109dd3082610f04565b61033b8184610fe3565b6001600160a01b03918216600090815260056020908152604080832093909416825291909152205460ff1690565b610a1d610abc565b6001600160a01b0316610a2e610638565b6001600160a01b031614610a545760405162461bcd60e51b81526004016103fc90611b15565b6001600160a01b038116610a7a5760405162461bcd60e51b81526004016103fc90611712565b610a8381610cd8565b50565b6001600160e01b031981166301ffc9a760e01b14919050565b6000908152600260205260409020546001600160a01b0316151590565b3390565b600081815260046020526040902080546001600160a01b0319166001600160a01b0384169081179091558190610af582610550565b6001600160a01b03167f8c5be1e5ebec7d5bd14f71427d1e84f3dd0314c0f7b2291e5b200ac8c7c3b92560405160405180910390a45050565b6000610b3982610a9f565b610b555760405162461bcd60e51b81526004016103fc90611867565b6000610b6083610550565b9050806001600160a01b0316846001600160a01b03161480610b9b5750836001600160a01b0316610b90846103d5565b6001600160a01b0316145b80610943575061094381856109e7565b826001600160a01b0316610bbe82610550565b6001600160a01b031614610be45760405162461bcd60e51b81526004016103fc90611b4a565b6001600160a01b038216610c0a5760405162461bcd60e51b81526004016103fc906117ec565b610c158383836104b4565b610c20600082610ac0565b6001600160a01b0383166000908152600360205260408120805460019290610c49908490611d31565b90915550506001600160a01b0382166000908152600360205260408120805460019290610c77908490611d05565b909155505060008181526002602052604080822080546001600160a01b0319166001600160a01b0386811691821790925591518493918716917fddf252ad1be2c89b69c2b068fc378daa952ba7f163c4a11628f55a4df523b3ef91a4505050565b600780546001600160a01b038381166001600160a01b0319831681179093556040519116919082907f8be0079c531659141344cd1fd0a4f28419497f9722a3daafe3b4186f6b6457e090600090a35050565b600080856001600160a01b03166323b872dd868686604051602401610d5193929190611637565b6040516020818303038152906040529060e01b6020820180517bffffffffffffffffffffffffffffffffffffffffffffffffffffffff8381831617835250505050604051610d9f91906115d8565b6000604051808303816000865af19150503d8060008114610ddc576040519150601f19603f3d011682016040523d82523d6000602084013e610de1565b606091505b5091509150818015610e0b575080511580610e0b575080806020019051810190610e0b91906114fa565b610e275760405162461bcd60e51b81526004016103fc9061178f565b505050505050565b610e3a848484610bab565b610e4684848484611027565b6108245760405162461bcd60e51b81526004016103fc906116b5565b60408051602081019091526000815290565b6060610e7f82610a9f565b610e9b5760405162461bcd60e51b81526004016103fc90611b93565b6000610ea5610e62565b90506000815111610ec55760405180602001604052806000815250610ef0565b80610ecf84611142565b604051602001610ee09291906115f4565b6040516020818303038152906040525b9392505050565b5490565b80546001019055565b6001600160a01b038216610f2a5760405162461bcd60e51b81526004016103fc90611a37565b610f3381610a9f565b15610f505760405162461bcd60e51b81526004016103fc90611758565b610f5c600083836104b4565b6001600160a01b0382166000908152600360205260408120805460019290610f85908490611d05565b909155505060008181526002602052604080822080546001600160a01b0319166001600160a01b03861690811790915590518392907fddf252ad1be2c89b69c2b068fc378daa952ba7f163c4a11628f55a4df523b3ef908290a45050565b610fec82610a9f565b6110085760405162461bcd60e51b81526004016103fc906119da565b600082815260066020908152604090912082516104b49284019061127b565b600061103b846001600160a01b0316611275565b1561113757836001600160a01b031663150b7a02611057610abc565b8786866040518563ffffffff1660e01b8152600401611079949392919061165b565b602060405180830381600087803b15801561109357600080fd5b505af19250505080156110c3575060408051601f3d908101601f191682019092526110c091810190611532565b60015b61111d573d8080156110f1576040519150601f19603f3d011682016040523d82523d6000602084013e6110f6565b606091505b5080516111155760405162461bcd60e51b81526004016103fc906116b5565b805181602001fd5b6001600160e01b031916630a85bd0160e11b149050610943565b506001949350505050565b60608161116757506040805180820190915260018152600360fc1b602082015261033e565b8160005b8115611191578061117b81611daf565b915061118a9050600a83611d1d565b915061116b565b60008167ffffffffffffffff8111156111ba57634e487b7160e01b600052604160045260246000fd5b6040519080825280601f01601f1916602001820160405280156111e4576020820181803683370190505b5090505b8415610943576111f9600183611d31565b9150611206600a86611dca565b611211906030611d05565b60f81b81838151811061123457634e487b7160e01b600052603260045260246000fd5b60200101907effffffffffffffffffffffffffffffffffffffffffffffffffffffffffffff1916908160001a90535061126e600a86611d1d565b94506111e8565b3b151590565b82805461128790611d74565b90600052602060002090601f0160209004810192826112a957600085556112ef565b82601f106112c257805160ff19168380011785556112ef565b828001600101855582156112ef579182015b828111156112ef5782518255916020019190600101906112d4565b506112fb9291506112ff565b5090565b5b808211156112fb5760008155600101611300565b600067ffffffffffffffff8084111561132f5761132f611e0a565b604051601f8501601f19168101602001828111828210171561135357611353611e0a565b60405284815291508183850186101561136b57600080fd5b8484602083013760006020868301015250509392505050565b80356001600160a01b038116811461033e57600080fd5b6000602082840312156113ac578081fd5b610ef082611384565b600080604083850312156113c7578081fd5b6113d083611384565b91506113de60208401611384565b90509250929050565b6000806000606084860312156113fb578081fd5b61140484611384565b925061141260208501611384565b9150604084013590509250925092565b60008060008060808587031215611437578081fd5b61144085611384565b935061144e60208601611384565b925060408501359150606085013567ffffffffffffffff811115611470578182fd5b8501601f81018713611480578182fd5b61148f87823560208401611314565b91505092959194509250565b600080604083850312156114ad578182fd5b6114b683611384565b915060208301356114c681611e20565b809150509250929050565b600080604083850312156114e3578182fd5b6114ec83611384565b946020939093013593505050565b60006020828403121561150b578081fd5b8151610ef081611e20565b600060208284031215611527578081fd5b8135610ef081611e2e565b600060208284031215611543578081fd5b8151610ef081611e2e565b60006020828403121561155f578081fd5b813567ffffffffffffffff811115611575578182fd5b8201601f81018413611585578182fd5b61094384823560208401611314565b6000602082840312156115a5578081fd5b5035919050565b600081518084526115c4816020860160208601611d48565b601f01601f19169290920160200192915050565b600082516115ea818460208701611d48565b9190910192915050565b60008351611606818460208801611d48565b83519083019061161a818360208801611d48565b01949350505050565b6001600160a01b0391909116815260200190565b6001600160a01b039384168152919092166020820152604081019190915260600190565b60006001600160a01b0380871683528086166020840152508360408301526080606083015261168d60808301846115ac565b9695505050505050565b901515815260200190565b600060208252610ef060208301846115ac565b60208082526032908201527f4552433732313a207472616e7366657220746f206e6f6e20455243373231526560408201527f63656976657220696d706c656d656e7465720000000000000000000000000000606082015260800190565b60208082526026908201527f4f776e61626c653a206e6577206f776e657220697320746865207a65726f206160408201526564647265737360d01b606082015260800190565b6020808252601c908201527f4552433732313a20746f6b656e20616c7265616479206d696e74656400000000604082015260600190565b60208082526031908201527f5472616e7366657248656c7065723a3a7472616e7366657246726f6d3a20747260408201527f616e7366657246726f6d206661696c6564000000000000000000000000000000606082015260800190565b60208082526024908201527f4552433732313a207472616e7366657220746f20746865207a65726f206164646040820152637265737360e01b606082015260800190565b60208082526019908201527f4552433732313a20617070726f766520746f2063616c6c657200000000000000604082015260600190565b6020808252602c908201527f4552433732313a206f70657261746f7220717565727920666f72206e6f6e657860408201526b34b9ba32b73a103a37b5b2b760a11b606082015260800190565b60208082526010908201527f447261676f6e3a466f7262696464656e00000000000000000000000000000000604082015260600190565b60208082526038908201527f4552433732313a20617070726f76652063616c6c6572206973206e6f74206f7760408201527f6e6572206e6f7220617070726f76656420666f7220616c6c0000000000000000606082015260800190565b6020808252602a908201527f4552433732313a2062616c616e636520717565727920666f7220746865207a65604082015269726f206164647265737360b01b606082015260800190565b60208082526029908201527f4552433732313a206f776e657220717565727920666f72206e6f6e657869737460408201526832b73a103a37b5b2b760b91b606082015260800190565b6020808252602e908201527f45524337323155524953746f726167653a2055524920736574206f66206e6f6e60408201527f6578697374656e7420746f6b656e000000000000000000000000000000000000606082015260800190565b6020808252818101527f4552433732313a206d696e7420746f20746865207a65726f2061646472657373604082015260600190565b60208082526031908201527f45524337323155524953746f726167653a2055524920717565727920666f722060408201527f6e6f6e6578697374656e7420746f6b656e000000000000000000000000000000606082015260800190565b6020808252602c908201527f4552433732313a20617070726f76656420717565727920666f72206e6f6e657860408201526b34b9ba32b73a103a37b5b2b760a11b606082015260800190565b6020808252818101527f4f776e61626c653a2063616c6c6572206973206e6f7420746865206f776e6572604082015260600190565b60208082526029908201527f4552433732313a207472616e73666572206f6620746f6b656e2074686174206960408201526839903737ba1037bbb760b91b606082015260800190565b6020808252602f908201527f4552433732314d657461646174613a2055524920717565727920666f72206e6f60408201527f6e6578697374656e7420746f6b656e0000000000000000000000000000000000606082015260800190565b60208082526021908201527f4552433732313a20617070726f76616c20746f2063757272656e74206f776e656040820152603960f91b606082015260800190565b60208082526031908201527f4552433732313a207472616e736665722063616c6c6572206973206e6f74206f60408201527f776e6572206e6f7220617070726f766564000000000000000000000000000000606082015260800190565b6020808252601f908201527f5265656e7472616e637947756172643a207265656e7472616e742063616c6c00604082015260600190565b6020808252601b908201527f416c6c20746f6b656e732068617665206265656e206d696e7465640000000000604082015260600190565b90815260200190565b60008219821115611d1857611d18611dde565b500190565b600082611d2c57611d2c611df4565b500490565b600082821015611d4357611d43611dde565b500390565b60005b83811015611d63578181015183820152602001611d4b565b838111156108245750506000910152565b600281046001821680611d8857607f821691505b60208210811415611da957634e487b7160e01b600052602260045260246000fd5b50919050565b6000600019821415611dc357611dc3611dde565b5060010190565b600082611dd957611dd9611df4565b500690565b634e487b7160e01b600052601160045260246000fd5b634e487b7160e01b600052601260045260246000fd5b634e487b7160e01b600052604160045260246000fd5b8015158114610a8357600080fd5b6001600160e01b031981168114610a8357600080fdfea264697066735822122042a235b3d224782b75b2993385b47d2a27b73abcd20c6e89c4939c93a389c2c964736f6c63430008000033",
  "devdoc": {
    "kind": "dev",
    "methods": {
      "approve(address,uint256)": {
        "details": "See {IERC721-approve}."
      },
      "balanceOf(address)": {
        "details": "See {IERC721-balanceOf}."
      },
      "getApproved(uint256)": {
        "details": "See {IERC721-getApproved}."
      },
      "isApprovedForAll(address,address)": {
        "details": "See {IERC721-isApprovedForAll}."
      },
      "name()": {
        "details": "See {IERC721Metadata-name}."
      },
      "owner()": {
        "details": "Returns the address of the current owner."
      },
      "ownerOf(uint256)": {
        "details": "See {IERC721-ownerOf}."
      },
      "renounceOwnership()": {
        "details": "Leaves the contract without owner. It will not be possible to call `onlyOwner` functions anymore. Can only be called by the current owner. NOTE: Renouncing ownership will leave the contract without an owner, thereby removing any functionality that is only available to the owner."
      },
      "safeTransferFrom(address,address,uint256)": {
        "details": "See {IERC721-safeTransferFrom}."
      },
      "safeTransferFrom(address,address,uint256,bytes)": {
        "details": "See {IERC721-safeTransferFrom}."
      },
      "setApprovalForAll(address,bool)": {
        "details": "See {IERC721-setApprovalForAll}."
      },
      "supportsInterface(bytes4)": {
        "details": "See {IERC165-supportsInterface}."
      },
      "symbol()": {
        "details": "See {IERC721Metadata-symbol}."
      },
      "tokenURI(uint256)": {
        "details": "See {IERC721Metadata-tokenURI}."
      },
      "transferFrom(address,address,uint256)": {
        "details": "See {IERC721-transferFrom}."
      },
      "transferOwnership(address)": {
        "details": "Transfers ownership of the contract to a new account (`newOwner`). Can only be called by the current owner."
      }
    },
    "version": 1
  },
  "userdoc": {
    "kind": "user",
    "methods": {},
    "version": 1
  },
  "storageLayout": {
    "storage": [
      {
        "astId": 2462,
        "contract": "contracts/dragon/DragonUtility.sol:DragonUtility",
        "label": "_name",
        "offset": 0,
        "slot": "0",
        "type": "t_string_storage"
      },
      {
        "astId": 2464,
        "contract": "contracts/dragon/DragonUtility.sol:DragonUtility",
        "label": "_symbol",
        "offset": 0,
        "slot": "1",
        "type": "t_string_storage"
      },
      {
        "astId": 2468,
        "contract": "contracts/dragon/DragonUtility.sol:DragonUtility",
        "label": "_owners",
        "offset": 0,
        "slot": "2",
        "type": "t_mapping(t_uint256,t_address)"
      },
      {
        "astId": 2472,
        "contract": "contracts/dragon/DragonUtility.sol:DragonUtility",
        "label": "_balances",
        "offset": 0,
        "slot": "3",
        "type": "t_mapping(t_address,t_uint256)"
      },
      {
        "astId": 2476,
        "contract": "contracts/dragon/DragonUtility.sol:DragonUtility",
        "label": "_tokenApprovals",
        "offset": 0,
        "slot": "4",
        "type": "t_mapping(t_uint256,t_address)"
      },
      {
        "astId": 2482,
        "contract": "contracts/dragon/DragonUtility.sol:DragonUtility",
        "label": "_operatorApprovals",
        "offset": 0,
        "slot": "5",
        "type": "t_mapping(t_address,t_mapping(t_address,t_bool))"
      },
      {
        "astId": 3399,
        "contract": "contracts/dragon/DragonUtility.sol:DragonUtility",
        "label": "_tokenURIs",
        "offset": 0,
        "slot": "6",
        "type": "t_mapping(t_uint256,t_string_storage)"
      },
      {
        "astId": 7,
        "contract": "contracts/dragon/DragonUtility.sol:DragonUtility",
        "label": "_owner",
        "offset": 0,
        "slot": "7",
        "type": "t_address"
      },
      {
        "astId": 206,
        "contract": "contracts/dragon/DragonUtility.sol:DragonUtility",
        "label": "_status",
        "offset": 0,
        "slot": "8",
        "type": "t_uint256"
      },
      {
        "astId": 7275,
        "contract": "contracts/dragon/DragonUtility.sol:DragonUtility",
        "label": "_tokenIds",
        "offset": 0,
        "slot": "9",
        "type": "t_struct(Counter)3866_storage"
      },
      {
        "astId": 7279,
        "contract": "contracts/dragon/DragonUtility.sol:DragonUtility",
        "label": "_devWallet",
        "offset": 0,
        "slot": "10",
        "type": "t_address_payable"
      },
      {
        "astId": 7281,
        "contract": "contracts/dragon/DragonUtility.sol:DragonUtility",
        "label": "_itemCost",
        "offset": 0,
        "slot": "11",
        "type": "t_uint256"
      }
    ],
    "types": {
      "t_address": {
        "encoding": "inplace",
        "label": "address",
        "numberOfBytes": "20"
      },
      "t_address_payable": {
        "encoding": "inplace",
        "label": "address payable",
        "numberOfBytes": "20"
      },
      "t_bool": {
        "encoding": "inplace",
        "label": "bool",
        "numberOfBytes": "1"
      },
      "t_mapping(t_address,t_bool)": {
        "encoding": "mapping",
        "key": "t_address",
        "label": "mapping(address => bool)",
        "numberOfBytes": "32",
        "value": "t_bool"
      },
      "t_mapping(t_address,t_mapping(t_address,t_bool))": {
        "encoding": "mapping",
        "key": "t_address",
        "label": "mapping(address => mapping(address => bool))",
        "numberOfBytes": "32",
        "value": "t_mapping(t_address,t_bool)"
      },
      "t_mapping(t_address,t_uint256)": {
        "encoding": "mapping",
        "key": "t_address",
        "label": "mapping(address => uint256)",
        "numberOfBytes": "32",
        "value": "t_uint256"
      },
      "t_mapping(t_uint256,t_address)": {
        "encoding": "mapping",
        "key": "t_uint256",
        "label": "mapping(uint256 => address)",
        "numberOfBytes": "32",
        "value": "t_address"
      },
      "t_mapping(t_uint256,t_string_storage)": {
        "encoding": "mapping",
        "key": "t_uint256",
        "label": "mapping(uint256 => string)",
        "numberOfBytes": "32",
        "value": "t_string_storage"
      },
      "t_string_storage": {
        "encoding": "bytes",
        "label": "string",
        "numberOfBytes": "32"
      },
      "t_struct(Counter)3866_storage": {
        "encoding": "inplace",
        "label": "struct Counters.Counter",
        "members": [
          {
            "astId": 3865,
            "contract": "contracts/dragon/DragonUtility.sol:DragonUtility",
            "label": "_value",
            "offset": 0,
            "slot": "0",
            "type": "t_uint256"
          }
        ],
        "numberOfBytes": "32"
      },
      "t_uint256": {
        "encoding": "inplace",
        "label": "uint256",
        "numberOfBytes": "32"
      }
    }
  }
}