{
  "address": "0xE21a3A7fB4fF125A55ff75e93F70a49C491F0Ca3",
  "abi": [
    {
      "inputs": [
        {
          "internalType": "address",
          "name": "_dcau",
          "type": "address"
        },
        {
          "internalType": "address",
          "name": "_DRAGON_UTILITY",
          "type": "address"
        },
        {
          "internalType": "address",
          "name": "_feeAddress",
          "type": "address"
        },
        {
          "internalType": "uint256",
          "name": "_startTime",
          "type": "uint256"
        },
        {
          "internalType": "uint256",
          "name": "_dcauPerBlock",
          "type": "uint256"
        },
        {
          "internalType": "address",
          "name": "_devWallet",
          "type": "address"
        }
      ],
      "stateMutability": "nonpayable",
      "type": "constructor"
    },
    {
      "anonymous": false,
      "inputs": [
        {
          "indexed": true,
          "internalType": "uint256",
          "name": "pid",
          "type": "uint256"
        },
        {
          "indexed": false,
          "internalType": "address",
          "name": "lpToken",
          "type": "address"
        },
        {
          "indexed": false,
          "internalType": "uint256",
          "name": "allocPoint",
          "type": "uint256"
        },
        {
          "indexed": false,
          "internalType": "uint256",
          "name": "depositFeeBP",
          "type": "uint256"
        }
      ],
      "name": "AddPool",
      "type": "event"
    },
    {
      "anonymous": false,
      "inputs": [
        {
          "indexed": true,
          "internalType": "address",
          "name": "user",
          "type": "address"
        },
        {
          "indexed": true,
          "internalType": "uint256",
          "name": "pid",
          "type": "uint256"
        },
        {
          "indexed": false,
          "internalType": "uint256",
          "name": "amount",
          "type": "uint256"
        }
      ],
      "name": "Deposit",
      "type": "event"
    },
    {
      "anonymous": false,
      "inputs": [
        {
          "indexed": true,
          "internalType": "address",
          "name": "user",
          "type": "address"
        },
        {
          "indexed": true,
          "internalType": "uint256",
          "name": "pid",
          "type": "uint256"
        },
        {
          "indexed": false,
          "internalType": "uint256",
          "name": "amount",
          "type": "uint256"
        }
      ],
      "name": "EmergencyWithdraw",
      "type": "event"
    },
    {
      "anonymous": false,
      "inputs": [
        {
          "indexed": true,
          "internalType": "address",
          "name": "previousOwner",
          "type": "address"
        },
        {
          "indexed": true,
          "internalType": "address",
          "name": "newOwner",
          "type": "address"
        }
      ],
      "name": "OwnershipTransferred",
      "type": "event"
    },
    {
      "anonymous": false,
      "inputs": [
        {
          "indexed": false,
          "internalType": "uint256",
          "name": "amount",
          "type": "uint256"
        }
      ],
      "name": "SetDCAUPerBlock",
      "type": "event"
    },
    {
      "anonymous": false,
      "inputs": [
        {
          "indexed": false,
          "internalType": "uint256",
          "name": "emissionEndTime",
          "type": "uint256"
        }
      ],
      "name": "SetEmissionEndTime",
      "type": "event"
    },
    {
      "anonymous": false,
      "inputs": [
        {
          "indexed": true,
          "internalType": "address",
          "name": "user",
          "type": "address"
        },
        {
          "indexed": true,
          "internalType": "address",
          "name": "newAddress",
          "type": "address"
        }
      ],
      "name": "SetFeeAddress",
      "type": "event"
    },
    {
      "anonymous": false,
      "inputs": [
        {
          "indexed": true,
          "internalType": "uint256",
          "name": "pid",
          "type": "uint256"
        },
        {
          "indexed": false,
          "internalType": "address",
          "name": "lpToken",
          "type": "address"
        },
        {
          "indexed": false,
          "internalType": "uint256",
          "name": "allocPoint",
          "type": "uint256"
        },
        {
          "indexed": false,
          "internalType": "uint256",
          "name": "depositFeeBP",
          "type": "uint256"
        }
      ],
      "name": "SetPool",
      "type": "event"
    },
    {
      "anonymous": false,
      "inputs": [
        {
          "indexed": false,
          "internalType": "uint256",
          "name": "newStartBlock",
          "type": "uint256"
        }
      ],
      "name": "UpdateStartBlock",
      "type": "event"
    },
    {
      "anonymous": false,
      "inputs": [
        {
          "indexed": true,
          "internalType": "address",
          "name": "user",
          "type": "address"
        },
        {
          "indexed": true,
          "internalType": "uint256",
          "name": "pid",
          "type": "uint256"
        },
        {
          "indexed": false,
          "internalType": "uint256",
          "name": "amount",
          "type": "uint256"
        }
      ],
      "name": "Withdraw",
      "type": "event"
    },
    {
      "inputs": [],
      "name": "DRAGON_UTILITY",
      "outputs": [
        {
          "internalType": "address",
          "name": "",
          "type": "address"
        }
      ],
      "stateMutability": "view",
      "type": "function"
    },
    {
      "inputs": [
        {
          "internalType": "uint256",
          "name": "_allocPoint",
          "type": "uint256"
        },
        {
          "internalType": "contract IERC20",
          "name": "_lpToken",
          "type": "address"
        },
        {
          "internalType": "uint16",
          "name": "_depositFeeBP",
          "type": "uint16"
        },
        {
          "internalType": "bool",
          "name": "_withUpdate",
          "type": "bool"
        }
      ],
      "name": "add",
      "outputs": [],
      "stateMutability": "nonpayable",
      "type": "function"
    },
    {
      "inputs": [],
      "name": "dcau",
      "outputs": [
        {
          "internalType": "address",
          "name": "",
          "type": "address"
        }
      ],
      "stateMutability": "view",
      "type": "function"
    },
    {
      "inputs": [],
      "name": "dcauMaximumSupply",
      "outputs": [
        {
          "internalType": "uint256",
          "name": "",
          "type": "uint256"
        }
      ],
      "stateMutability": "view",
      "type": "function"
    },
    {
      "inputs": [],
      "name": "dcauPerBlock",
      "outputs": [
        {
          "internalType": "uint256",
          "name": "",
          "type": "uint256"
        }
      ],
      "stateMutability": "view",
      "type": "function"
    },
    {
      "inputs": [
        {
          "internalType": "uint256",
          "name": "_pid",
          "type": "uint256"
        },
        {
          "internalType": "uint256",
          "name": "_amount",
          "type": "uint256"
        }
      ],
      "name": "deposit",
      "outputs": [],
      "stateMutability": "nonpayable",
      "type": "function"
    },
    {
      "inputs": [],
      "name": "devWallet",
      "outputs": [
        {
          "internalType": "address",
          "name": "",
          "type": "address"
        }
      ],
      "stateMutability": "view",
      "type": "function"
    },
    {
      "inputs": [
        {
          "internalType": "uint256",
          "name": "",
          "type": "uint256"
        },
        {
          "internalType": "uint256",
          "name": "",
          "type": "uint256"
        }
      ],
      "name": "dragonNestInfo",
      "outputs": [
        {
          "internalType": "uint256",
          "name": "",
          "type": "uint256"
        }
      ],
      "stateMutability": "view",
      "type": "function"
    },
    {
      "inputs": [
        {
          "internalType": "uint256",
          "name": "_pid",
          "type": "uint256"
        }
      ],
      "name": "emergencyWithdraw",
      "outputs": [],
      "stateMutability": "nonpayable",
      "type": "function"
    },
    {
      "inputs": [],
      "name": "emissionEndTime",
      "outputs": [
        {
          "internalType": "uint256",
          "name": "",
          "type": "uint256"
        }
      ],
      "stateMutability": "view",
      "type": "function"
    },
    {
      "inputs": [],
      "name": "feeAddress",
      "outputs": [
        {
          "internalType": "address",
          "name": "",
          "type": "address"
        }
      ],
      "stateMutability": "view",
      "type": "function"
    },
    {
      "inputs": [
        {
          "internalType": "uint256",
          "name": "_from",
          "type": "uint256"
        },
        {
          "internalType": "uint256",
          "name": "_to",
          "type": "uint256"
        }
      ],
      "name": "getMultiplier",
      "outputs": [
        {
          "internalType": "uint256",
          "name": "",
          "type": "uint256"
        }
      ],
      "stateMutability": "view",
      "type": "function"
    },
    {
      "inputs": [],
      "name": "massUpdatePoolDragonNests",
      "outputs": [],
      "stateMutability": "nonpayable",
      "type": "function"
    },
    {
      "inputs": [],
      "name": "massUpdatePools",
      "outputs": [],
      "stateMutability": "nonpayable",
      "type": "function"
    },
    {
      "inputs": [],
      "name": "nestSupportersLength",
      "outputs": [
        {
          "internalType": "uint256",
          "name": "",
          "type": "uint256"
        }
      ],
      "stateMutability": "view",
      "type": "function"
    },
    {
      "inputs": [],
      "name": "owner",
      "outputs": [
        {
          "internalType": "address",
          "name": "",
          "type": "address"
        }
      ],
      "stateMutability": "view",
      "type": "function"
    },
    {
      "inputs": [
        {
          "internalType": "uint256",
          "name": "_pid",
          "type": "uint256"
        },
        {
          "internalType": "address",
          "name": "_user",
          "type": "address"
        }
      ],
      "name": "pendingDcau",
      "outputs": [
        {
          "internalType": "uint256",
          "name": "",
          "type": "uint256"
        }
      ],
      "stateMutability": "view",
      "type": "function"
    },
    {
      "inputs": [
        {
          "internalType": "uint256",
          "name": "",
          "type": "uint256"
        }
      ],
      "name": "poolDragonNestInfo",
      "outputs": [
        {
          "internalType": "uint256",
          "name": "accDepFeePerShare",
          "type": "uint256"
        },
        {
          "internalType": "uint256",
          "name": "pendingDepFee",
          "type": "uint256"
        }
      ],
      "stateMutability": "view",
      "type": "function"
    },
    {
      "inputs": [
        {
          "internalType": "contract IERC20",
          "name": "",
          "type": "address"
        }
      ],
      "name": "poolExistence",
      "outputs": [
        {
          "internalType": "bool",
          "name": "",
          "type": "bool"
        }
      ],
      "stateMutability": "view",
      "type": "function"
    },
    {
      "inputs": [
        {
          "internalType": "uint256",
          "name": "",
          "type": "uint256"
        }
      ],
      "name": "poolInfo",
      "outputs": [
        {
          "internalType": "contract IERC20",
          "name": "lpToken",
          "type": "address"
        },
        {
          "internalType": "uint256",
          "name": "allocPoint",
          "type": "uint256"
        },
        {
          "internalType": "uint256",
          "name": "lastRewardTime",
          "type": "uint256"
        },
        {
          "internalType": "uint256",
          "name": "accDCAUPerShare",
          "type": "uint256"
        },
        {
          "internalType": "uint16",
          "name": "depositFeeBP",
          "type": "uint16"
        },
        {
          "internalType": "uint256",
          "name": "lpSupply",
          "type": "uint256"
        }
      ],
      "stateMutability": "view",
      "type": "function"
    },
    {
      "inputs": [],
      "name": "poolLength",
      "outputs": [
        {
          "internalType": "uint256",
          "name": "",
          "type": "uint256"
        }
      ],
      "stateMutability": "view",
      "type": "function"
    },
    {
      "inputs": [],
      "name": "renounceOwnership",
      "outputs": [],
      "stateMutability": "nonpayable",
      "type": "function"
    },
    {
      "inputs": [
        {
          "internalType": "uint256",
          "name": "_pid",
          "type": "uint256"
        },
        {
          "internalType": "uint256",
          "name": "_allocPoint",
          "type": "uint256"
        },
        {
          "internalType": "uint16",
          "name": "_depositFeeBP",
          "type": "uint16"
        },
        {
          "internalType": "bool",
          "name": "_withUpdate",
          "type": "bool"
        }
      ],
      "name": "set",
      "outputs": [],
      "stateMutability": "nonpayable",
      "type": "function"
    },
    {
      "inputs": [
        {
          "internalType": "uint256",
          "name": "_dcauPerBlock",
          "type": "uint256"
        }
      ],
      "name": "setDcauPerBlock",
      "outputs": [],
      "stateMutability": "nonpayable",
      "type": "function"
    },
    {
      "inputs": [
        {
          "internalType": "uint256",
          "name": "_emissionEndTime",
          "type": "uint256"
        }
      ],
      "name": "setEmissionEndTime",
      "outputs": [],
      "stateMutability": "nonpayable",
      "type": "function"
    },
    {
      "inputs": [
        {
          "internalType": "address",
          "name": "_feeAddress",
          "type": "address"
        }
      ],
      "name": "setFeeAddress",
      "outputs": [],
      "stateMutability": "nonpayable",
      "type": "function"
    },
    {
      "inputs": [
        {
          "internalType": "uint256",
          "name": "_newStartTime",
          "type": "uint256"
        }
      ],
      "name": "setStartTime",
      "outputs": [],
      "stateMutability": "nonpayable",
      "type": "function"
    },
    {
      "inputs": [
        {
          "internalType": "uint256",
          "name": "tokenId",
          "type": "uint256"
        }
      ],
      "name": "stakeDragonUtility",
      "outputs": [],
      "stateMutability": "nonpayable",
      "type": "function"
    },
    {
      "inputs": [],
      "name": "startTime",
      "outputs": [
        {
          "internalType": "uint256",
          "name": "",
          "type": "uint256"
        }
      ],
      "stateMutability": "view",
      "type": "function"
    },
    {
      "inputs": [],
      "name": "totalAllocPoint",
      "outputs": [
        {
          "internalType": "uint256",
          "name": "",
          "type": "uint256"
        }
      ],
      "stateMutability": "view",
      "type": "function"
    },
    {
      "inputs": [
        {
          "internalType": "address",
          "name": "newOwner",
          "type": "address"
        }
      ],
      "name": "transferOwnership",
      "outputs": [],
      "stateMutability": "nonpayable",
      "type": "function"
    },
    {
      "inputs": [
        {
          "internalType": "uint256",
          "name": "_pid",
          "type": "uint256"
        }
      ],
      "name": "updatePool",
      "outputs": [],
      "stateMutability": "nonpayable",
      "type": "function"
    },
    {
      "inputs": [
        {
          "internalType": "uint256",
          "name": "_pid",
          "type": "uint256"
        }
      ],
      "name": "updatePoolDragonNest",
      "outputs": [],
      "stateMutability": "nonpayable",
      "type": "function"
    },
    {
      "inputs": [
        {
          "internalType": "uint256",
          "name": "",
          "type": "uint256"
        },
        {
          "internalType": "address",
          "name": "",
          "type": "address"
        }
      ],
      "name": "userInfo",
      "outputs": [
        {
          "internalType": "uint256",
          "name": "amount",
          "type": "uint256"
        },
        {
          "internalType": "uint256",
          "name": "rewardDebt",
          "type": "uint256"
        }
      ],
      "stateMutability": "view",
      "type": "function"
    },
    {
      "inputs": [
        {
          "internalType": "uint256",
          "name": "_pid",
          "type": "uint256"
        },
        {
          "internalType": "uint256",
          "name": "_amount",
          "type": "uint256"
        }
      ],
      "name": "withdraw",
      "outputs": [],
      "stateMutability": "nonpayable",
      "type": "function"
    },
    {
      "inputs": [
        {
          "internalType": "uint256",
          "name": "tokenId",
          "type": "uint256"
        }
      ],
      "name": "withdrawDragonUtility",
      "outputs": [],
      "stateMutability": "nonpayable",
      "type": "function"
    }
  ],
  "transactionHash": "0x09cd66c3e3861f770283877842fd892d6427c2aecaf3613fb5ef8f1eb04c2ee3",
  "args": [
    "0xaba6D7b5515f70402bFb2633B5446670B996c10b",
    "0x66A8a6Ab9778D8A2D8bB5D28c7319c246262677A",
    "0x6C641CE6A7216F12d28692f9d8b2BDcdE812eD2b",
    0,
    "50000000000000000",
    "0x6C641CE6A7216F12d28692f9d8b2BDcdE812eD2b"
  ],
  "solcInputHash": "e4301e1a08bd497065b889f4f0670643",
  "bytecode": "0x60a06040526000600b55600019600d553480156200001c57600080fd5b5060405162002baa38038062002baa8339810160408190526200003f9162000128565b620000536200004d620000b7565b620000bb565b60018055600680546001600160a01b03199081166001600160a01b039889161790915560609590951b6001600160601b03191660805260088054861694871694909417909355600c91909155600755600e8054909216921691909117905562000196565b3390565b600080546001600160a01b038381166001600160a01b0319831681178455604051919092169283917f8be0079c531659141344cd1fd0a4f28419497f9722a3daafe3b4186f6b6457e09190a35050565b80516001600160a01b03811681146200012357600080fd5b919050565b60008060008060008060c0878903121562000141578182fd5b6200014c876200010b565b95506200015c602088016200010b565b94506200016c604088016200010b565b935060608701519250608087015191506200018a60a088016200010b565b90509295509295509295565b60805160601c6129e7620001c36000396000818161077901528181611120015261171401526129e76000f3fe608060405234801561001057600080fd5b506004361061021c5760003560e01c8063715018a611610125578063ae6b40ba116100ad578063d66fb21b1161007c578063d66fb21b14610426578063d963842214610439578063e2bbb1581461044c578063ecb8f3f11461045f578063f2fde38b146104675761021c565b8063ae6b40ba146103d8578063bf2695e2146103eb578063c9932dee146103fe578063cbd258b5146104065761021c565b80638da5cb5b116100f45780638da5cb5b1461038c5780638dbb1e3a146103945780638ea5220f146103a757806393f1a40b146103af578063ad8913c6146103d05761021c565b8063715018a61461035657806378e979251461035e57806384e82a33146103665780638705fcd4146103795761021c565b8063441a3e70116101a857806356209b891161017757806356209b89146103185780635b0eacb31461032057806360be5cc414610333578063630b5ba11461034657806364dadf1a1461034e5761021c565b8063441a3e70146102d75780634a464ad5146102ea57806351eb05a6146102f25780635312ea8e146103055761021c565b8063312fc8a0116101ef578063312fc8a014610281578063385808c0146102945780633e0a322d146102a957806341275358146102bc57806341a73c42146102c45761021c565b8063081e3eda146102215780631526fe271461023f57806317caf6f11461026457806320b875731461026c575b600080fd5b61022961047a565b6040516102369190612895565b60405180910390f35b61025261024d3660046121da565b610480565b60405161023696959493929190612373565b6102296104d7565b6102746104dd565b60405161023691906122f2565b61022961028f36600461220a565b6104ec565b6102a76102a23660046121da565b610629565b005b6102a76102b73660046121da565b61080d565b6102746108ec565b6102296102d2366004612289565b6108fb565b6102a76102e5366004612289565b610918565b610229610aad565b6102a76103003660046121da565b610ab3565b6102a76103133660046121da565b610f17565b61022961102e565b6102a761032e3660046121da565b611034565b6102a76103413660046121da565b61107f565b6102a76110f3565b61027461111e565b6102a7611142565b61022961118d565b6102a7610374366004612239565b611193565b6102a76103873660046121a2565b6114a8565b610274611559565b6102296103a2366004612289565b611568565b6102746115b3565b6103c26103bd36600461220a565b6115c2565b60405161023692919061289e565b6102296115e6565b6103c26103e63660046121da565b6115ec565b6102a76103f93660046121da565b611605565b6102a7611698565b6104196104143660046121a2565b6116bf565b6040516102369190612368565b6102a76104343660046121da565b6116d4565b6102a76104473660046122aa565b6117c3565b6102a761045a366004612289565b611987565b610229611c18565b6102a76104753660046121a2565b611c26565b60095490565b6009818154811061049057600080fd5b60009182526020909120600690910201805460018201546002830154600384015460048501546005909501546001600160a01b0390941695509193909261ffff9091169086565b600b5481565b6006546001600160a01b031681565b6000806009848154811061051057634e487b7160e01b600052603260045260246000fd5b60009182526020808320878452600a825260408085206001600160a01b0389168652909252922060036006909202909201908101546002820154919350904211801561055f5750600583015415155b156105f0576000610574846002015442611568565b90506000600b5485600101546007548461058e91906128e4565b61059891906128e4565b6105a291906128c4565b905060006103e86105b5836103cf6128e4565b6105bf91906128c4565b60058701549091506105d68264e8d4a510006128e4565b6105e091906128c4565b6105ea90856128ac565b93505050505b6001820154825464e8d4a51000906106099084906128e4565b61061391906128c4565b61061d9190612903565b93505050505b92915050565b600260015414156106555760405162461bcd60e51b815260040161064c9061285e565b60405180910390fd5b60026001556000818152600460205260409020546001600160a01b031633146106905760405162461bcd60e51b815260040161064c906124e1565b600081815260046020526040902080546001600160a01b03191690556106b4611698565b60095460005b81811015610769576000600982815481106106e557634e487b7160e01b600052603260045260246000fd5b600091825260208083208584526003825260408085208986528352808520548786526002909352909320546006909202909201925061073c91339161072a9190612903565b83546001600160a01b03169190611c94565b506000818152600360209081526040808320868452909152812055806107618161295d565b9150506106ba565b50604051632142170760e11b81527f0000000000000000000000000000000000000000000000000000000000000000906001600160a01b038216906342842e0e906107bc90309033908890600401612306565b600060405180830381600087803b1580156107d657600080fd5b505af11580156107ea573d6000803e3d6000fd5b5050600580549250905060006107ff83612946565b909155505060018055505050565b610815611d17565b6001600160a01b0316610826611559565b6001600160a01b03161461084c5760405162461bcd60e51b815260040161064c906126a6565b6009541561086c5760405162461bcd60e51b815260040161064c906127b7565b600c54421061088d5760405162461bcd60e51b815260040161064c906125e2565b8042106108ac5760405162461bcd60e51b815260040161064c906123dd565b600c8190556040517f1ff2238e284780b094bb341b41af7e6ce294dee1da3799ae49cd0e29fbe12709906108e1908390612895565b60405180910390a150565b6008546001600160a01b031681565b600360209081526000928352604080842090915290825290205481565b6002600154141561093b5760405162461bcd60e51b815260040161064c9061285e565b600260018190555060006009838154811061096657634e487b7160e01b600052603260045260246000fd5b60009182526020808320868452600a8252604080852033865290925292208054600690920290920192508311156109af5760405162461bcd60e51b815260040161064c906126db565b6109b884610ab3565b6000816001015464e8d4a51000846003015484600001546109d991906128e4565b6109e391906128c4565b6109ed9190612903565b905080156109ff576109ff3382611d1b565b8315610a40578154610a12908590612903565b82558254610a2a906001600160a01b03163386611c94565b838360050154610a3a9190612903565b60058401555b6003830154825464e8d4a5100091610a57916128e4565b610a6191906128c4565b6001830155604051859033907ff279e6a1f5e320cca91135676d9cb6e44ca8a08c0b88342bcdb1144f6511b56890610a9a908890612895565b60405180910390a3505060018055505050565b60075481565b600060098281548110610ad657634e487b7160e01b600052603260045260246000fd5b9060005260206000209060060201905080600201544211610af75750610f14565b60058101541580610b0a57506001810154155b15610b1b5742600290910155610f14565b6000610b2b826002015442611568565b90506000600b54836001015460075484610b4591906128e4565b610b4f91906128e4565b610b5991906128c4565b9050691efaf05b356120700000600660009054906101000a90046001600160a01b03166001600160a01b03166318160ddd6040518163ffffffff1660e01b815260040160206040518083038186803b158015610bb457600080fd5b505afa158015610bc8573d6000803e3d6000fd5b505050506040513d601f19601f82011682018060405250810190610bec91906121f2565b1115610bfa57506000610d39565b691efaf05b35612070000081600660009054906101000a90046001600160a01b03166001600160a01b03166318160ddd6040518163ffffffff1660e01b815260040160206040518083038186803b158015610c5457600080fd5b505afa158015610c68573d6000803e3d6000fd5b505050506040513d601f19601f82011682018060405250810190610c8c91906121f2565b610c9691906128ac565b1115610d3957600660009054906101000a90046001600160a01b03166001600160a01b03166318160ddd6040518163ffffffff1660e01b815260040160206040518083038186803b158015610cea57600080fd5b505afa158015610cfe573d6000803e3d6000fd5b505050506040513d601f19601f82011682018060405250810190610d2291906121f2565b610d3690691efaf05b356120700000612903565b90505b60006103e8610d4a836103cf6128e4565b610d5491906128c4565b90508115610e33576006546040516340c10f1960e01b81526001600160a01b03909116906340c10f1990610d8e903090859060040161232a565b600060405180830381600087803b158015610da857600080fd5b505af1158015610dbc573d6000803e3d6000fd5b5050600654600e546001600160a01b0391821693506340c10f19925016610de38486612903565b6040518363ffffffff1660e01b8152600401610e0092919061232a565b600060405180830381600087803b158015610e1a57600080fd5b505af1158015610e2e573d6000803e3d6000fd5b505050505b600654604080516318160ddd60e01b81529051691efaf05b356120700000926001600160a01b0316916318160ddd916004808301926020929190829003018186803b158015610e8157600080fd5b505afa158015610e95573d6000803e3d6000fd5b505050506040513d601f19601f82011682018060405250810190610eb991906121f2565b10158015610eca5750600019600d54145b15610ed45742600d555b6005840154610ee88264e8d4a510006128e4565b610ef291906128c4565b8460030154610f0191906128ac565b6003850155505042600290920191909155505b50565b60026001541415610f3a5760405162461bcd60e51b815260040161064c9061285e565b6002600181905550600060098281548110610f6557634e487b7160e01b600052603260045260246000fd5b60009182526020808320858452600a825260408085203380875293528420805485825560018201959095556006909302018054909450919291610fb5916001600160a01b03919091169083611c94565b80836005015410610fda57808360050154610fd09190612903565b6005840155610fe2565b600060058401555b83336001600160a01b03167fbb757047c2b5f3974fe26b7c10f732e7bce710b0952a71082702781e62ae05958360405161101c9190612895565b60405180910390a35050600180555050565b60055481565b60008181526002602052604090206001810154801561107a5760055461105a90826128c4565b82600001600082825461106d91906128ac565b9091555050600060018301555b505050565b611087611d17565b6001600160a01b0316611098611559565b6001600160a01b0316146110be5760405162461bcd60e51b815260040161064c906126a6565b60078190556040517f186c80ff837d626871c06c19535adddf4dd8efee0c90cb6547e19a7acf796823906108e1908390612895565b60095460005b8181101561111a5761110a81610ab3565b6111138161295d565b90506110f9565b5050565b7f000000000000000000000000000000000000000000000000000000000000000081565b61114a611d17565b6001600160a01b031661115b611559565b6001600160a01b0316146111815760405162461bcd60e51b815260040161064c906126a6565b61118b6000611edd565b565b600c5481565b61119b611d17565b6001600160a01b03166111ac611559565b6001600160a01b0316146111d25760405162461bcd60e51b815260040161064c906126a6565b6001600160a01b0383166000908152600f6020526040902054839060ff161561120d5760405162461bcd60e51b815260040161064c90612749565b6040516370a0823160e01b81526001600160a01b038516906370a08231906112399030906004016122f2565b60206040518083038186803b15801561125157600080fd5b505afa158015611265573d6000803e3d6000fd5b505050506040513d601f19601f8201168201806040525081019061128991906121f2565b506101918361ffff1611156112b05760405162461bcd60e51b815260040161064c9061241f565b81156112be576112be6110f3565b6000600c5442116112d157600c546112d3565b425b905085600b546112e391906128ac565b600b556001600160a01b038581166000818152600f602090815260408083208054600160ff199091168117909155815160c0810183529485529184018b81529084018681526060850184815261ffff8b81166080880190815260a088018781526009805480890182559881905298517f6e1540171b6c0c960b71a7020d9f60077f6af931a8bbf590da0223dacf75c7af600690990298890180546001600160a01b03191691909b161790995593517f6e1540171b6c0c960b71a7020d9f60077f6af931a8bbf590da0223dacf75c7b087015591517f6e1540171b6c0c960b71a7020d9f60077f6af931a8bbf590da0223dacf75c7b1860155517f6e1540171b6c0c960b71a7020d9f60077f6af931a8bbf590da0223dacf75c7b285015590517f6e1540171b6c0c960b71a7020d9f60077f6af931a8bbf590da0223dacf75c7b38401805461ffff19169190921617905592517f6e1540171b6c0c960b71a7020d9f60077f6af931a8bbf590da0223dacf75c7b490910155546114659190612903565b7fa69d86e67bfa14ad558a2599f0df3af0dff00c36be738f9118440420f1c2706786888760405161149893929190612343565b60405180910390a2505050505050565b6114b0611d17565b6001600160a01b03166114c1611559565b6001600160a01b0316146114e75760405162461bcd60e51b815260040161064c906126a6565b6001600160a01b03811661150d5760405162461bcd60e51b815260040161064c9061263f565b600880546001600160a01b0319166001600160a01b03831690811790915560405133907fd44190acf9d04bdb5d3a1aafff7e6dee8b40b93dfb8c5d3f0eea4b9f4539c3f790600090a350565b6000546001600160a01b031690565b6000600d5483111561157c57506000610623565b600d548211156115a757600f83600d546115969190612903565b6115a091906128c4565b9050610623565b600f6115968484612903565b600e546001600160a01b031681565b600a6020908152600092835260408084209091529082529020805460019091015482565b600d5481565b6002602052600090815260409020805460019091015482565b61160d611d17565b6001600160a01b031661161e611559565b6001600160a01b0316146116445760405162461bcd60e51b815260040161064c906126a6565b4281116116635760405162461bcd60e51b815260040161064c9061255e565b600d8190556040517fa10b761a678a8dae9101bf9e96bfa7261fc033eeb4eab101834145e002501b83906108e1908390612895565b60095460005b8181101561111a576116af81611034565b6116b88161295d565b905061169e565b600f6020526000908152604090205460ff1681565b600260015414156116f75760405162461bcd60e51b815260040161064c9061285e565b600260015561170581611f2d565b604051632142170760e11b81527f0000000000000000000000000000000000000000000000000000000000000000906001600160a01b038216906342842e0e9061175790339030908790600401612306565b600060405180830381600087803b15801561177157600080fd5b505af1158015611785573d6000803e3d6000fd5b505050600083815260046020526040812080546001600160a01b03191633179055600580549250906117b68361295d565b9091555050600180555050565b6117cb611d17565b6001600160a01b03166117dc611559565b6001600160a01b0316146118025760405162461bcd60e51b815260040161064c906126a6565b6101918261ffff1611156118285760405162461bcd60e51b815260040161064c90612661565b8015611836576118366110f3565b826009858154811061185857634e487b7160e01b600052603260045260246000fd5b906000526020600020906006020160010154600b546118779190612903565b61188191906128ac565b600b8190555082600985815481106118a957634e487b7160e01b600052603260045260246000fd5b90600052602060002090600602016001018190555081600985815481106118e057634e487b7160e01b600052603260045260246000fd5b906000526020600020906006020160040160006101000a81548161ffff021916908361ffff160217905550837f22d010b39cce830b2f23926bfb7551a230dbe713d1f6085480fef4a6ad7a4aaa6009868154811061194e57634e487b7160e01b600052603260045260246000fd5b6000918252602090912060069091020154604051611979916001600160a01b03169087908790612343565b60405180910390a250505050565b600260015414156119aa5760405162461bcd60e51b815260040161064c9061285e565b6002600155806119cc5760405162461bcd60e51b815260040161064c90612780565b60095482106119ed5760405162461bcd60e51b815260040161064c906124aa565b600060098381548110611a1057634e487b7160e01b600052603260045260246000fd5b60009182526020808320868452600a82526040808520338652909252922060069091029091019150611a4184610ab3565b805415611a91576000816001015464e8d4a5100084600301548460000154611a6991906128e4565b611a7391906128c4565b611a7d9190612903565b90508015611a8f57611a8f3382611d1b565b505b8154611aa8906001600160a01b0316333086611f55565b600482015461ffff1615611b9957600482015460009061271090611ad09061ffff16866128e4565b611ada91906128c4565b600854909150611b18906001600160a01b0316612710611afc846123286128e4565b611b0691906128c4565b85546001600160a01b03169190611c94565b612710611b27826103e86128e4565b611b3191906128c4565b60008681526002602052604081206001018054909190611b529084906128ac565b909155505081548190611b669086906128ac565b611b709190612903565b825560058301548190611b849086906128ac565b611b8e9190612903565b600584015550611bbe565b8054611ba69084906128ac565b81556005820154611bb89084906128ac565b60058301555b6003820154815464e8d4a5100091611bd5916128e4565b611bdf91906128c4565b6001820155604051849033907f90890809c654f11d6e72a28fa60149770a0d11ec6c92319d6ceb2bb0a4ea1a159061101c908790612895565b691efaf05b35612070000081565b611c2e611d17565b6001600160a01b0316611c3f611559565b6001600160a01b031614611c655760405162461bcd60e51b815260040161064c906126a6565b6001600160a01b038116611c8b5760405162461bcd60e51b815260040161064c90612464565b610f1481611edd565b61107a8363a9059cbb60e01b8484604051602401611cb392919061232a565b60408051601f198184030181529190526020810180517bffffffffffffffffffffffffffffffffffffffffffffffffffffffff167fffffffff0000000000000000000000000000000000000000000000000000000090931692909217909152611f76565b3390565b6006546040516370a0823160e01b81526000916001600160a01b0316906370a0823190611d4c9030906004016122f2565b60206040518083038186803b158015611d6457600080fd5b505afa158015611d78573d6000803e3d6000fd5b505050506040513d601f19601f82011682018060405250810190611d9c91906121f2565b9050600081831115611e335760065460405163a9059cbb60e01b81526001600160a01b039091169063a9059cbb90611dda908790869060040161232a565b602060405180830381600087803b158015611df457600080fd5b505af1158015611e08573d6000803e3d6000fd5b505050506040513d601f19601f82011682018060405250810190611e2c91906121be565b9050611eba565b60065460405163a9059cbb60e01b81526001600160a01b039091169063a9059cbb90611e65908790879060040161232a565b602060405180830381600087803b158015611e7f57600080fd5b505af1158015611e93573d6000803e3d6000fd5b505050506040513d601f19601f82011682018060405250810190611eb791906121be565b90505b80611ed75760405162461bcd60e51b815260040161064c906125a1565b50505050565b600080546001600160a01b038381166001600160a01b0319831681178455604051919092169283917f8be0079c531659141344cd1fd0a4f28419497f9722a3daafe3b4186f6b6457e09190a35050565b60095460005b8181101561107a57611f458184612005565b611f4e8161295d565b9050611f33565b611ed7846323b872dd60e01b858585604051602401611cb393929190612306565b6000611fcb826040518060400160405280602081526020017f5361666545524332303a206c6f772d6c6576656c2063616c6c206661696c6564815250856001600160a01b03166120749092919063ffffffff16565b80519091501561107a5780806020019051810190611fe991906121be565b61107a5760405162461bcd60e51b815260040161064c90612814565b600082815260026020526040902060018101548154811580159061202b57506000600554115b156120515760055461203d90836128c4565b61204790826128ac565b8355600060018401555b600094855260036020908152604080872095875294905292909320919091555050565b6060612083848460008561208d565b90505b9392505050565b6060824710156120af5760405162461bcd60e51b815260040161064c90612518565b6120b88561214d565b6120d45760405162461bcd60e51b815260040161064c90612712565b600080866001600160a01b031685876040516120f091906122d6565b60006040518083038185875af1925050503d806000811461212d576040519150601f19603f3d011682016040523d82523d6000602084013e612132565b606091505b5091509150612142828286612157565b979650505050505050565b803b15155b919050565b60608315612166575081612086565b8251156121765782518084602001fd5b8160405162461bcd60e51b815260040161064c91906123aa565b803561ffff8116811461215257600080fd5b6000602082840312156121b3578081fd5b81356120868161298e565b6000602082840312156121cf578081fd5b8151612086816129a3565b6000602082840312156121eb578081fd5b5035919050565b600060208284031215612203578081fd5b5051919050565b6000806040838503121561221c578081fd5b82359150602083013561222e8161298e565b809150509250929050565b6000806000806080858703121561224e578182fd5b8435935060208501356122608161298e565b925061226e60408601612190565b9150606085013561227e816129a3565b939692955090935050565b6000806040838503121561229b578182fd5b50508035926020909101359150565b600080600080608085870312156122bf578384fd5b843593506020850135925061226e60408601612190565b600082516122e881846020870161291a565b9190910192915050565b6001600160a01b0391909116815260200190565b6001600160a01b039384168152919092166020820152604081019190915260600190565b6001600160a01b03929092168252602082015260400190565b6001600160a01b03939093168352602083019190915261ffff16604082015260600190565b901515815260200190565b6001600160a01b0396909616865260208601949094526040850192909252606084015261ffff16608083015260a082015260c00190565b60006020825282518060208401526123c981604085016020870161291a565b601f01601f19169190910160400192915050565b60208082526022908201527f63616e6e6f742073657420737461727420626c6f636b20696e207468652070616040820152611cdd60f21b606082015260800190565b60208082526025908201527f6164643a20696e76616c6964206465706f7369742066656520626173697320706040820152646f696e747360d81b606082015260800190565b60208082526026908201527f4f776e61626c653a206e6577206f776e657220697320746865207a65726f206160408201526564647265737360d01b606082015260800190565b60208082526019908201527f447261676f6e3a204e6f6e2d6578697374656e7420706f6f6c00000000000000604082015260600190565b60208082526011908201527f447261676f6e3a20466f7262696464656e000000000000000000000000000000604082015260600190565b60208082526026908201527f416464726573733a20696e73756666696369656e742062616c616e636520666f6040820152651c8818d85b1b60d21b606082015260800190565b60208082526023908201527f456d697373696f6e2063616e206e6f7420626520656e6420696e207468652070604082015262185cdd60ea1b606082015260800190565b60208082526021908201527f73616665446361755472616e736665723a207472616e73666572206661696c656040820152601960fa1b606082015260800190565b60208082526037908201527f63616e6e6f74206368616e676520737461727420626c6f636b2069662073616c60408201527f652068617320616c726561647920636f6d6d656e636564000000000000000000606082015260800190565b602080825260089082015267216e6f6e7a65726f60c01b604082015260600190565b60208082526025908201527f7365743a20696e76616c6964206465706f7369742066656520626173697320706040820152646f696e747360d81b606082015260800190565b6020808252818101527f4f776e61626c653a2063616c6c6572206973206e6f7420746865206f776e6572604082015260600190565b60208082526012908201527f57697468647261773a206e6f7420676f6f640000000000000000000000000000604082015260600190565b6020808252601d908201527f416464726573733a2063616c6c20746f206e6f6e2d636f6e7472616374000000604082015260600190565b60208082526019908201527f6e6f6e4475706c6963617465643a206475706c69636174656400000000000000604082015260600190565b60208082526012908201527f447261676f6e3a205a45524f5f56414c55450000000000000000000000000000604082015260600190565b60208082526031908201527f6e6f206368616e67696e6720737461727454696d6520616674657220706f6f6c60408201527f732068617665206265656e206164646564000000000000000000000000000000606082015260800190565b6020808252602a908201527f5361666545524332303a204552433230206f7065726174696f6e20646964206e6040820152691bdd081cdd58d8d9595960b21b606082015260800190565b6020808252601f908201527f5265656e7472616e637947756172643a207265656e7472616e742063616c6c00604082015260600190565b90815260200190565b918252602082015260400190565b600082198211156128bf576128bf612978565b500190565b6000826128df57634e487b7160e01b81526012600452602481fd5b500490565b60008160001904831182151516156128fe576128fe612978565b500290565b60008282101561291557612915612978565b500390565b60005b8381101561293557818101518382015260200161291d565b83811115611ed75750506000910152565b60008161295557612955612978565b506000190190565b600060001982141561297157612971612978565b5060010190565b634e487b7160e01b600052601160045260246000fd5b6001600160a01b0381168114610f1457600080fd5b8015158114610f1457600080fdfea264697066735822122001e885d7d75bcea1980883d71de34894ba9a8371ae19cb8068093f1681a5eb5f64736f6c63430008000033",
  "devdoc": {
    "kind": "dev",
    "methods": {
      "owner()": {
        "details": "Returns the address of the current owner."
      },
      "renounceOwnership()": {
        "details": "Leaves the contract without owner. It will not be possible to call `onlyOwner` functions anymore. Can only be called by the current owner. NOTE: Renouncing ownership will leave the contract without an owner, thereby removing any functionality that is only available to the owner."
      },
      "transferOwnership(address)": {
        "details": "Transfers ownership of the contract to a new account (`newOwner`). Can only be called by the current owner."
      }
    },
    "version": 1
  },
  "userdoc": {
    "kind": "user",
    "methods": {},
    "version": 1
  },
  "storageLayout": {
    "storage": [
      {
        "astId": 7,
        "contract": "contracts/MasterChef.sol:MasterChef",
        "label": "_owner",
        "offset": 0,
        "slot": "0",
        "type": "t_address"
      },
      {
        "astId": 206,
        "contract": "contracts/MasterChef.sol:MasterChef",
        "label": "_status",
        "offset": 0,
        "slot": "1",
        "type": "t_uint256"
      },
      {
        "astId": 4818,
        "contract": "contracts/MasterChef.sol:MasterChef",
        "label": "poolDragonNestInfo",
        "offset": 0,
        "slot": "2",
        "type": "t_mapping(t_uint256,t_struct(PoolDragonNestInfo)4813_storage)"
      },
      {
        "astId": 4824,
        "contract": "contracts/MasterChef.sol:MasterChef",
        "label": "dragonNestInfo",
        "offset": 0,
        "slot": "3",
        "type": "t_mapping(t_uint256,t_mapping(t_uint256,t_uint256))"
      },
      {
        "astId": 4828,
        "contract": "contracts/MasterChef.sol:MasterChef",
        "label": "nestSupporters",
        "offset": 0,
        "slot": "4",
        "type": "t_mapping(t_uint256,t_address)"
      },
      {
        "astId": 4830,
        "contract": "contracts/MasterChef.sol:MasterChef",
        "label": "nestSupportersLength",
        "offset": 0,
        "slot": "5",
        "type": "t_uint256"
      },
      {
        "astId": 4840,
        "contract": "contracts/MasterChef.sol:MasterChef",
        "label": "dcau",
        "offset": 0,
        "slot": "6",
        "type": "t_address"
      },
      {
        "astId": 4842,
        "contract": "contracts/MasterChef.sol:MasterChef",
        "label": "dcauPerBlock",
        "offset": 0,
        "slot": "7",
        "type": "t_uint256"
      },
      {
        "astId": 4846,
        "contract": "contracts/MasterChef.sol:MasterChef",
        "label": "feeAddress",
        "offset": 0,
        "slot": "8",
        "type": "t_address"
      },
      {
        "astId": 4850,
        "contract": "contracts/MasterChef.sol:MasterChef",
        "label": "poolInfo",
        "offset": 0,
        "slot": "9",
        "type": "t_array(t_struct(PoolInfo)4808_storage)dyn_storage"
      },
      {
        "astId": 4857,
        "contract": "contracts/MasterChef.sol:MasterChef",
        "label": "userInfo",
        "offset": 0,
        "slot": "10",
        "type": "t_mapping(t_uint256,t_mapping(t_address,t_struct(UserInfo)4794_storage))"
      },
      {
        "astId": 4860,
        "contract": "contracts/MasterChef.sol:MasterChef",
        "label": "totalAllocPoint",
        "offset": 0,
        "slot": "11",
        "type": "t_uint256"
      },
      {
        "astId": 4862,
        "contract": "contracts/MasterChef.sol:MasterChef",
        "label": "startTime",
        "offset": 0,
        "slot": "12",
        "type": "t_uint256"
      },
      {
        "astId": 4869,
        "contract": "contracts/MasterChef.sol:MasterChef",
        "label": "emissionEndTime",
        "offset": 0,
        "slot": "13",
        "type": "t_uint256"
      },
      {
        "astId": 4871,
        "contract": "contracts/MasterChef.sol:MasterChef",
        "label": "devWallet",
        "offset": 0,
        "slot": "14",
        "type": "t_address"
      },
      {
        "astId": 4987,
        "contract": "contracts/MasterChef.sol:MasterChef",
        "label": "poolExistence",
        "offset": 0,
        "slot": "15",
        "type": "t_mapping(t_contract(IERC20)2187,t_bool)"
      }
    ],
    "types": {
      "t_address": {
        "encoding": "inplace",
        "label": "address",
        "numberOfBytes": "20"
      },
      "t_array(t_struct(PoolInfo)4808_storage)dyn_storage": {
        "base": "t_struct(PoolInfo)4808_storage",
        "encoding": "dynamic_array",
        "label": "struct MasterChef.PoolInfo[]",
        "numberOfBytes": "32"
      },
      "t_bool": {
        "encoding": "inplace",
        "label": "bool",
        "numberOfBytes": "1"
      },
      "t_contract(IERC20)2187": {
        "encoding": "inplace",
        "label": "contract IERC20",
        "numberOfBytes": "20"
      },
      "t_mapping(t_address,t_struct(UserInfo)4794_storage)": {
        "encoding": "mapping",
        "key": "t_address",
        "label": "mapping(address => struct MasterChef.UserInfo)",
        "numberOfBytes": "32",
        "value": "t_struct(UserInfo)4794_storage"
      },
      "t_mapping(t_contract(IERC20)2187,t_bool)": {
        "encoding": "mapping",
        "key": "t_contract(IERC20)2187",
        "label": "mapping(contract IERC20 => bool)",
        "numberOfBytes": "32",
        "value": "t_bool"
      },
      "t_mapping(t_uint256,t_address)": {
        "encoding": "mapping",
        "key": "t_uint256",
        "label": "mapping(uint256 => address)",
        "numberOfBytes": "32",
        "value": "t_address"
      },
      "t_mapping(t_uint256,t_mapping(t_address,t_struct(UserInfo)4794_storage))": {
        "encoding": "mapping",
        "key": "t_uint256",
        "label": "mapping(uint256 => mapping(address => struct MasterChef.UserInfo))",
        "numberOfBytes": "32",
        "value": "t_mapping(t_address,t_struct(UserInfo)4794_storage)"
      },
      "t_mapping(t_uint256,t_mapping(t_uint256,t_uint256))": {
        "encoding": "mapping",
        "key": "t_uint256",
        "label": "mapping(uint256 => mapping(uint256 => uint256))",
        "numberOfBytes": "32",
        "value": "t_mapping(t_uint256,t_uint256)"
      },
      "t_mapping(t_uint256,t_struct(PoolDragonNestInfo)4813_storage)": {
        "encoding": "mapping",
        "key": "t_uint256",
        "label": "mapping(uint256 => struct MasterChef.PoolDragonNestInfo)",
        "numberOfBytes": "32",
        "value": "t_struct(PoolDragonNestInfo)4813_storage"
      },
      "t_mapping(t_uint256,t_uint256)": {
        "encoding": "mapping",
        "key": "t_uint256",
        "label": "mapping(uint256 => uint256)",
        "numberOfBytes": "32",
        "value": "t_uint256"
      },
      "t_struct(PoolDragonNestInfo)4813_storage": {
        "encoding": "inplace",
        "label": "struct MasterChef.PoolDragonNestInfo",
        "members": [
          {
            "astId": 4810,
            "contract": "contracts/MasterChef.sol:MasterChef",
            "label": "accDepFeePerShare",
            "offset": 0,
            "slot": "0",
            "type": "t_uint256"
          },
          {
            "astId": 4812,
            "contract": "contracts/MasterChef.sol:MasterChef",
            "label": "pendingDepFee",
            "offset": 0,
            "slot": "1",
            "type": "t_uint256"
          }
        ],
        "numberOfBytes": "64"
      },
      "t_struct(PoolInfo)4808_storage": {
        "encoding": "inplace",
        "label": "struct MasterChef.PoolInfo",
        "members": [
          {
            "astId": 4797,
            "contract": "contracts/MasterChef.sol:MasterChef",
            "label": "lpToken",
            "offset": 0,
            "slot": "0",
            "type": "t_contract(IERC20)2187"
          },
          {
            "astId": 4799,
            "contract": "contracts/MasterChef.sol:MasterChef",
            "label": "allocPoint",
            "offset": 0,
            "slot": "1",
            "type": "t_uint256"
          },
          {
            "astId": 4801,
            "contract": "contracts/MasterChef.sol:MasterChef",
            "label": "lastRewardTime",
            "offset": 0,
            "slot": "2",
            "type": "t_uint256"
          },
          {
            "astId": 4803,
            "contract": "contracts/MasterChef.sol:MasterChef",
            "label": "accDCAUPerShare",
            "offset": 0,
            "slot": "3",
            "type": "t_uint256"
          },
          {
            "astId": 4805,
            "contract": "contracts/MasterChef.sol:MasterChef",
            "label": "depositFeeBP",
            "offset": 0,
            "slot": "4",
            "type": "t_uint16"
          },
          {
            "astId": 4807,
            "contract": "contracts/MasterChef.sol:MasterChef",
            "label": "lpSupply",
            "offset": 0,
            "slot": "5",
            "type": "t_uint256"
          }
        ],
        "numberOfBytes": "192"
      },
      "t_struct(UserInfo)4794_storage": {
        "encoding": "inplace",
        "label": "struct MasterChef.UserInfo",
        "members": [
          {
            "astId": 4791,
            "contract": "contracts/MasterChef.sol:MasterChef",
            "label": "amount",
            "offset": 0,
            "slot": "0",
            "type": "t_uint256"
          },
          {
            "astId": 4793,
            "contract": "contracts/MasterChef.sol:MasterChef",
            "label": "rewardDebt",
            "offset": 0,
            "slot": "1",
            "type": "t_uint256"
          }
        ],
        "numberOfBytes": "64"
      },
      "t_uint16": {
        "encoding": "inplace",
        "label": "uint16",
        "numberOfBytes": "2"
      },
      "t_uint256": {
        "encoding": "inplace",
        "label": "uint256",
        "numberOfBytes": "32"
      }
    }
  }
}