{
  "address": "0x018C7C09e19b569998C75eb80e7EB8C9009D9208",
  "abi": [
    {
      "inputs": [
        {
          "internalType": "address",
          "name": "_vaultChefAddress",
          "type": "address"
        },
        {
          "internalType": "address",
          "name": "_masterchefAddress",
          "type": "address"
        },
        {
          "internalType": "address",
          "name": "_uniRouterAddress",
          "type": "address"
        },
        {
          "internalType": "uint256",
          "name": "_pid",
          "type": "uint256"
        },
        {
          "internalType": "address",
          "name": "_wantAddress",
          "type": "address"
        },
        {
          "internalType": "address",
          "name": "_earnedAddress",
          "type": "address"
        },
        {
          "internalType": "address[]",
          "name": "_earnedToWmaticPath",
          "type": "address[]"
        },
        {
          "internalType": "address[]",
          "name": "_earnedToDgngPath",
          "type": "address[]"
        },
        {
          "internalType": "address[]",
          "name": "_earnedToToken0Path",
          "type": "address[]"
        },
        {
          "internalType": "address[]",
          "name": "_earnedToToken1Path",
          "type": "address[]"
        }
      ],
      "stateMutability": "nonpayable",
      "type": "constructor"
    },
    {
      "anonymous": false,
      "inputs": [
        {
          "indexed": true,
          "internalType": "address",
          "name": "previousOwner",
          "type": "address"
        },
        {
          "indexed": true,
          "internalType": "address",
          "name": "newOwner",
          "type": "address"
        }
      ],
      "name": "OwnershipTransferred",
      "type": "event"
    },
    {
      "anonymous": false,
      "inputs": [
        {
          "indexed": false,
          "internalType": "address",
          "name": "account",
          "type": "address"
        }
      ],
      "name": "Paused",
      "type": "event"
    },
    {
      "anonymous": false,
      "inputs": [
        {
          "indexed": false,
          "internalType": "uint256",
          "name": "_controllerFee",
          "type": "uint256"
        },
        {
          "indexed": false,
          "internalType": "uint256",
          "name": "_rewardRate",
          "type": "uint256"
        },
        {
          "indexed": false,
          "internalType": "uint256",
          "name": "_buyBackRate",
          "type": "uint256"
        },
        {
          "indexed": false,
          "internalType": "uint256",
          "name": "_withdrawFeeFactor",
          "type": "uint256"
        },
        {
          "indexed": false,
          "internalType": "uint256",
          "name": "_slippageFactor",
          "type": "uint256"
        },
        {
          "indexed": false,
          "internalType": "address",
          "name": "_uniRouterAddress",
          "type": "address"
        }
      ],
      "name": "SetSettings",
      "type": "event"
    },
    {
      "anonymous": false,
      "inputs": [
        {
          "indexed": false,
          "internalType": "address",
          "name": "account",
          "type": "address"
        }
      ],
      "name": "Unpaused",
      "type": "event"
    },
    {
      "inputs": [],
      "name": "buyBackAddress",
      "outputs": [
        {
          "internalType": "address",
          "name": "",
          "type": "address"
        }
      ],
      "stateMutability": "view",
      "type": "function"
    },
    {
      "inputs": [],
      "name": "buyBackRate",
      "outputs": [
        {
          "internalType": "uint256",
          "name": "",
          "type": "uint256"
        }
      ],
      "stateMutability": "view",
      "type": "function"
    },
    {
      "inputs": [],
      "name": "controllerFee",
      "outputs": [
        {
          "internalType": "uint256",
          "name": "",
          "type": "uint256"
        }
      ],
      "stateMutability": "view",
      "type": "function"
    },
    {
      "inputs": [],
      "name": "convertDustToEarned",
      "outputs": [],
      "stateMutability": "nonpayable",
      "type": "function"
    },
    {
      "inputs": [
        {
          "internalType": "address",
          "name": "_userAddress",
          "type": "address"
        },
        {
          "internalType": "uint256",
          "name": "_wantAmt",
          "type": "uint256"
        }
      ],
      "name": "deposit",
      "outputs": [
        {
          "internalType": "uint256",
          "name": "",
          "type": "uint256"
        }
      ],
      "stateMutability": "nonpayable",
      "type": "function"
    },
    {
      "inputs": [],
      "name": "dgngAddress",
      "outputs": [
        {
          "internalType": "address",
          "name": "",
          "type": "address"
        }
      ],
      "stateMutability": "view",
      "type": "function"
    },
    {
      "inputs": [],
      "name": "earn",
      "outputs": [],
      "stateMutability": "nonpayable",
      "type": "function"
    },
    {
      "inputs": [],
      "name": "earnedAddress",
      "outputs": [
        {
          "internalType": "address",
          "name": "",
          "type": "address"
        }
      ],
      "stateMutability": "view",
      "type": "function"
    },
    {
      "inputs": [
        {
          "internalType": "uint256",
          "name": "",
          "type": "uint256"
        }
      ],
      "name": "earnedToDgngPath",
      "outputs": [
        {
          "internalType": "address",
          "name": "",
          "type": "address"
        }
      ],
      "stateMutability": "view",
      "type": "function"
    },
    {
      "inputs": [
        {
          "internalType": "uint256",
          "name": "",
          "type": "uint256"
        }
      ],
      "name": "earnedToToken0Path",
      "outputs": [
        {
          "internalType": "address",
          "name": "",
          "type": "address"
        }
      ],
      "stateMutability": "view",
      "type": "function"
    },
    {
      "inputs": [
        {
          "internalType": "uint256",
          "name": "",
          "type": "uint256"
        }
      ],
      "name": "earnedToToken1Path",
      "outputs": [
        {
          "internalType": "address",
          "name": "",
          "type": "address"
        }
      ],
      "stateMutability": "view",
      "type": "function"
    },
    {
      "inputs": [
        {
          "internalType": "uint256",
          "name": "",
          "type": "uint256"
        }
      ],
      "name": "earnedToWmaticPath",
      "outputs": [
        {
          "internalType": "address",
          "name": "",
          "type": "address"
        }
      ],
      "stateMutability": "view",
      "type": "function"
    },
    {
      "inputs": [],
      "name": "feeAddress",
      "outputs": [
        {
          "internalType": "address",
          "name": "",
          "type": "address"
        }
      ],
      "stateMutability": "view",
      "type": "function"
    },
    {
      "inputs": [],
      "name": "feeMax",
      "outputs": [
        {
          "internalType": "uint256",
          "name": "",
          "type": "uint256"
        }
      ],
      "stateMutability": "view",
      "type": "function"
    },
    {
      "inputs": [],
      "name": "feeMaxTotal",
      "outputs": [
        {
          "internalType": "uint256",
          "name": "",
          "type": "uint256"
        }
      ],
      "stateMutability": "view",
      "type": "function"
    },
    {
      "inputs": [],
      "name": "govAddress",
      "outputs": [
        {
          "internalType": "address",
          "name": "",
          "type": "address"
        }
      ],
      "stateMutability": "view",
      "type": "function"
    },
    {
      "inputs": [],
      "name": "lastEarnBlock",
      "outputs": [
        {
          "internalType": "uint256",
          "name": "",
          "type": "uint256"
        }
      ],
      "stateMutability": "view",
      "type": "function"
    },
    {
      "inputs": [],
      "name": "masterchefAddress",
      "outputs": [
        {
          "internalType": "address",
          "name": "",
          "type": "address"
        }
      ],
      "stateMutability": "view",
      "type": "function"
    },
    {
      "inputs": [],
      "name": "owner",
      "outputs": [
        {
          "internalType": "address",
          "name": "",
          "type": "address"
        }
      ],
      "stateMutability": "view",
      "type": "function"
    },
    {
      "inputs": [],
      "name": "panic",
      "outputs": [],
      "stateMutability": "nonpayable",
      "type": "function"
    },
    {
      "inputs": [],
      "name": "pause",
      "outputs": [],
      "stateMutability": "nonpayable",
      "type": "function"
    },
    {
      "inputs": [],
      "name": "paused",
      "outputs": [
        {
          "internalType": "bool",
          "name": "",
          "type": "bool"
        }
      ],
      "stateMutability": "view",
      "type": "function"
    },
    {
      "inputs": [],
      "name": "pid",
      "outputs": [
        {
          "internalType": "uint256",
          "name": "",
          "type": "uint256"
        }
      ],
      "stateMutability": "view",
      "type": "function"
    },
    {
      "inputs": [],
      "name": "renounceOwnership",
      "outputs": [],
      "stateMutability": "nonpayable",
      "type": "function"
    },
    {
      "inputs": [],
      "name": "resetAllowances",
      "outputs": [],
      "stateMutability": "nonpayable",
      "type": "function"
    },
    {
      "inputs": [],
      "name": "rewardRate",
      "outputs": [
        {
          "internalType": "uint256",
          "name": "",
          "type": "uint256"
        }
      ],
      "stateMutability": "view",
      "type": "function"
    },
    {
      "inputs": [
        {
          "internalType": "address",
          "name": "_govAddress",
          "type": "address"
        }
      ],
      "name": "setGov",
      "outputs": [],
      "stateMutability": "nonpayable",
      "type": "function"
    },
    {
      "inputs": [
        {
          "internalType": "uint256",
          "name": "_controllerFee",
          "type": "uint256"
        },
        {
          "internalType": "uint256",
          "name": "_rewardRate",
          "type": "uint256"
        },
        {
          "internalType": "uint256",
          "name": "_buyBackRate",
          "type": "uint256"
        },
        {
          "internalType": "uint256",
          "name": "_withdrawFeeFactor",
          "type": "uint256"
        },
        {
          "internalType": "uint256",
          "name": "_slippageFactor",
          "type": "uint256"
        },
        {
          "internalType": "address",
          "name": "_uniRouterAddress",
          "type": "address"
        }
      ],
      "name": "setSettings",
      "outputs": [],
      "stateMutability": "nonpayable",
      "type": "function"
    },
    {
      "inputs": [],
      "name": "sharesTotal",
      "outputs": [
        {
          "internalType": "uint256",
          "name": "",
          "type": "uint256"
        }
      ],
      "stateMutability": "view",
      "type": "function"
    },
    {
      "inputs": [],
      "name": "slippageFactor",
      "outputs": [
        {
          "internalType": "uint256",
          "name": "",
          "type": "uint256"
        }
      ],
      "stateMutability": "view",
      "type": "function"
    },
    {
      "inputs": [],
      "name": "slippageFactorUL",
      "outputs": [
        {
          "internalType": "uint256",
          "name": "",
          "type": "uint256"
        }
      ],
      "stateMutability": "view",
      "type": "function"
    },
    {
      "inputs": [],
      "name": "token0Address",
      "outputs": [
        {
          "internalType": "address",
          "name": "",
          "type": "address"
        }
      ],
      "stateMutability": "view",
      "type": "function"
    },
    {
      "inputs": [
        {
          "internalType": "uint256",
          "name": "",
          "type": "uint256"
        }
      ],
      "name": "token0ToEarnedPath",
      "outputs": [
        {
          "internalType": "address",
          "name": "",
          "type": "address"
        }
      ],
      "stateMutability": "view",
      "type": "function"
    },
    {
      "inputs": [],
      "name": "token1Address",
      "outputs": [
        {
          "internalType": "address",
          "name": "",
          "type": "address"
        }
      ],
      "stateMutability": "view",
      "type": "function"
    },
    {
      "inputs": [
        {
          "internalType": "uint256",
          "name": "",
          "type": "uint256"
        }
      ],
      "name": "token1ToEarnedPath",
      "outputs": [
        {
          "internalType": "address",
          "name": "",
          "type": "address"
        }
      ],
      "stateMutability": "view",
      "type": "function"
    },
    {
      "inputs": [
        {
          "internalType": "address",
          "name": "newOwner",
          "type": "address"
        }
      ],
      "name": "transferOwnership",
      "outputs": [],
      "stateMutability": "nonpayable",
      "type": "function"
    },
    {
      "inputs": [],
      "name": "uniRouterAddress",
      "outputs": [
        {
          "internalType": "address",
          "name": "",
          "type": "address"
        }
      ],
      "stateMutability": "view",
      "type": "function"
    },
    {
      "inputs": [],
      "name": "unpanic",
      "outputs": [],
      "stateMutability": "nonpayable",
      "type": "function"
    },
    {
      "inputs": [],
      "name": "unpause",
      "outputs": [],
      "stateMutability": "nonpayable",
      "type": "function"
    },
    {
      "inputs": [],
      "name": "vaultChefAddress",
      "outputs": [
        {
          "internalType": "address",
          "name": "",
          "type": "address"
        }
      ],
      "stateMutability": "view",
      "type": "function"
    },
    {
      "inputs": [],
      "name": "vaultSharesTotal",
      "outputs": [
        {
          "internalType": "uint256",
          "name": "",
          "type": "uint256"
        }
      ],
      "stateMutability": "view",
      "type": "function"
    },
    {
      "inputs": [],
      "name": "wantAddress",
      "outputs": [
        {
          "internalType": "address",
          "name": "",
          "type": "address"
        }
      ],
      "stateMutability": "view",
      "type": "function"
    },
    {
      "inputs": [],
      "name": "wantLockedTotal",
      "outputs": [
        {
          "internalType": "uint256",
          "name": "",
          "type": "uint256"
        }
      ],
      "stateMutability": "view",
      "type": "function"
    },
    {
      "inputs": [
        {
          "internalType": "address",
          "name": "_userAddress",
          "type": "address"
        },
        {
          "internalType": "uint256",
          "name": "_wantAmt",
          "type": "uint256"
        }
      ],
      "name": "withdraw",
      "outputs": [
        {
          "internalType": "uint256",
          "name": "",
          "type": "uint256"
        }
      ],
      "stateMutability": "nonpayable",
      "type": "function"
    },
    {
      "inputs": [],
      "name": "withdrawFeeAddress",
      "outputs": [
        {
          "internalType": "address",
          "name": "",
          "type": "address"
        }
      ],
      "stateMutability": "view",
      "type": "function"
    },
    {
      "inputs": [],
      "name": "withdrawFeeFactor",
      "outputs": [
        {
          "internalType": "uint256",
          "name": "",
          "type": "uint256"
        }
      ],
      "stateMutability": "view",
      "type": "function"
    },
    {
      "inputs": [],
      "name": "withdrawFeeFactorLL",
      "outputs": [
        {
          "internalType": "uint256",
          "name": "",
          "type": "uint256"
        }
      ],
      "stateMutability": "view",
      "type": "function"
    },
    {
      "inputs": [],
      "name": "withdrawFeeFactorMax",
      "outputs": [
        {
          "internalType": "uint256",
          "name": "",
          "type": "uint256"
        }
      ],
      "stateMutability": "view",
      "type": "function"
    }
  ],
  "transactionHash": "0x19166a675ee5886050bde4864c9f8133dd008fb9d558b9fdaeaee055d8c67b65",
  "args": [
    "0x2f868bC458f578958525B2780A0a3a713ee1270E",
    "0xE21a3A7fB4fF125A55ff75e93F70a49C491F0Ca3",
    "0x7a250d5630B4cF539739dF2C5dAcb4c659F2488D",
    4,
    "0x35fd7926b4b8fde82c6218281db182b5fd452603",
    "0xaba6D7b5515f70402bFb2633B5446670B996c10b",
    [
      "0xaba6D7b5515f70402bFb2633B5446670B996c10b",
      "0xc778417e063141139fce010982780140aa0cd5ab"
    ],
    [
      "0xaba6D7b5515f70402bFb2633B5446670B996c10b",
      "0xaba6D7b5515f70402bFb2633B5446670B996c10b"
    ],
    [
      "0xaba6D7b5515f70402bFb2633B5446670B996c10b",
      "0xaba6D7b5515f70402bFb2633B5446670B996c10b"
    ],
    [
      "0xaba6D7b5515f70402bFb2633B5446670B996c10b",
      "0xF143436dE21a03c50267dBf64F2B7D6d14dEeA0F"
    ]
  ],
  "solcInputHash": "42777ead1281ab388a02e232bbc05447",
  "bytecode": "0x6080604052436009556000600a556032600b556000600c556096600d55612710600e556103b6600f553480156200003557600080fd5b5060405162003861380380620038618339810160408190526200005891620009f9565b6200006c62000066620002a7565b620002ab565b600180556002805460088054336001600160a01b0319918216179091556007805482166001600160a01b038f8116919091179091556016805483168e8316179055600680549092168c8216179091556001600160a81b03199091166101008983168102919091179283905560408051630dfe168160e01b815290519190930490911691630dfe1681916004828101926020929190829003018186803b1580156200011557600080fd5b505afa1580156200012a573d6000803e3d6000fd5b505050506040513d601f19601f82011682018060405250810190620001509190620009dc565b600380546001600160a01b0319166001600160a01b039283161790556002546040805163d21220a760e01b815290516101009092049092169163d21220a7916004808301926020929190829003018186803b158015620001af57600080fd5b505afa158015620001c4573d6000803e3d6000fd5b505050506040513d601f19601f82011682018060405250810190620001ea9190620009dc565b600480546001600160a01b03199081166001600160a01b039384161790915560178990556005805490911691871691909117905583516200023390601090602087019062000899565b5082516200024990601190602086019062000899565b5081516200025f90601290602085019062000899565b5080516200027590601390602084019062000899565b506007546200028d906001600160a01b0316620002fb565b6200029762000381565b5050505050505050505062000de1565b3390565b600080546001600160a01b038381166001600160a01b0319831681178455604051919092169283917f8be0079c531659141344cd1fd0a4f28419497f9722a3daafe3b4186f6b6457e09190a35050565b62000305620002a7565b6001600160a01b031662000318620004f1565b6001600160a01b0316146200034a5760405162461bcd60e51b8152600401620003419062000c64565b60405180910390fd5b6001600160a01b038116620003735760405162461bcd60e51b8152600401620003419062000bd8565b6200037e81620002ab565b50565b601654600254620003b2916001600160a01b0361010090920482169116600062000500602090811b6200161e17901c565b601654600254620003e4916001600160a01b03610100909204821691166000196200060e602090811b6200174a17901c565b60065460055462000410916001600160a01b039182169116600062000500602090811b6200161e17901c565b6006546005546200043d916001600160a01b0391821691166000196200060e602090811b6200174a17901c565b60065460035462000469916001600160a01b039182169116600062000500602090811b6200161e17901c565b60065460035462000496916001600160a01b0391821691166000196200060e602090811b6200174a17901c565b600654600454620004c2916001600160a01b039182169116600062000500602090811b6200161e17901c565b600654600454620004ef916001600160a01b0391821691166000196200060e602090811b6200174a17901c565b565b6000546001600160a01b031690565b8015806200058f5750604051636eb1769f60e11b81526001600160a01b0384169063dd62ed3e9062000539903090869060040162000b70565b60206040518083038186803b1580156200055257600080fd5b505afa15801562000567573d6000803e3d6000fd5b505050506040513d601f19601f820116820180604052508101906200058d919062000b39565b155b620005ae5760405162461bcd60e51b8152600401620003419062000d1a565b620006098363095ea7b360e01b8484604051602401620005d092919062000b8a565b60408051808303601f190181529190526020810180516001600160e01b0319939093166001600160e01b0393841617905290620006cb16565b505050565b600081846001600160a01b031663dd62ed3e30866040518363ffffffff1660e01b81526004016200064192919062000b70565b60206040518083038186803b1580156200065a57600080fd5b505afa1580156200066f573d6000803e3d6000fd5b505050506040513d601f19601f8201168201806040525081019062000695919062000b39565b620006a1919062000d77565b9050620006c58463095ea7b360e01b8584604051602401620005d092919062000b8a565b50505050565b600062000727826040518060400160405280602081526020017f5361666545524332303a206c6f772d6c6576656c2063616c6c206661696c6564815250856001600160a01b03166200076760201b620017fc179092919060201c565b80519091501562000609578080602001905181019062000748919062000b17565b620006095760405162461bcd60e51b8152600401620003419062000cd0565b606062000778848460008562000782565b90505b9392505050565b606082471015620007a75760405162461bcd60e51b8152600401620003419062000c1e565b620007b28562000851565b620007d15760405162461bcd60e51b8152600401620003419062000c99565b600080866001600160a01b03168587604051620007ef919062000b52565b60006040518083038185875af1925050503d80600081146200082e576040519150601f19603f3d011682016040523d82523d6000602084013e62000833565b606091505b509092509050620008468282866200085b565b979650505050505050565b803b15155b919050565b606083156200086c5750816200077b565b8251156200087d5782518084602001fd5b8160405162461bcd60e51b815260040162000341919062000ba3565b828054828255906000526020600020908101928215620008f1579160200282015b82811115620008f157825182546001600160a01b0319166001600160a01b03909116178255602090920191600190910190620008ba565b50620008ff92915062000903565b5090565b5b80821115620008ff576000815560010162000904565b80516001600160a01b03811681146200085657600080fd5b600082601f83011262000943578081fd5b815160206001600160401b038083111562000962576200096262000dcb565b8183026040518382820101818110848211171562000984576200098462000dcb565b60405284815283810192508684018288018501891015620009a3578687fd5b8692505b85831015620009d057620009bb816200091a565b845292840192600192909201918401620009a7565b50979650505050505050565b600060208284031215620009ee578081fd5b6200077b826200091a565b6000806000806000806000806000806101408b8d03121562000a19578586fd5b62000a248b6200091a565b995062000a3460208c016200091a565b985062000a4460408c016200091a565b975060608b0151965062000a5b60808c016200091a565b955062000a6b60a08c016200091a565b60c08c01519095506001600160401b038082111562000a88578586fd5b62000a968e838f0162000932565b955060e08d015191508082111562000aac578485fd5b62000aba8e838f0162000932565b94506101008d015191508082111562000ad1578384fd5b62000adf8e838f0162000932565b93506101208d015191508082111562000af6578283fd5b5062000b058d828e0162000932565b9150509295989b9194979a5092959850565b60006020828403121562000b29578081fd5b815180151581146200077b578182fd5b60006020828403121562000b4b578081fd5b5051919050565b6000825162000b6681846020870162000d9c565b9190910192915050565b6001600160a01b0392831681529116602082015260400190565b6001600160a01b03929092168252602082015260400190565b600060208252825180602084015262000bc481604085016020870162000d9c565b601f01601f19169190910160400192915050565b60208082526026908201527f4f776e61626c653a206e6577206f776e657220697320746865207a65726f206160408201526564647265737360d01b606082015260800190565b60208082526026908201527f416464726573733a20696e73756666696369656e742062616c616e636520666f6040820152651c8818d85b1b60d21b606082015260800190565b6020808252818101527f4f776e61626c653a2063616c6c6572206973206e6f7420746865206f776e6572604082015260600190565b6020808252601d908201527f416464726573733a2063616c6c20746f206e6f6e2d636f6e7472616374000000604082015260600190565b6020808252602a908201527f5361666545524332303a204552433230206f7065726174696f6e20646964206e6040820152691bdd081cdd58d8d9595960b21b606082015260800190565b60208082526036908201527f5361666545524332303a20617070726f76652066726f6d206e6f6e2d7a65726f60408201527f20746f206e6f6e2d7a65726f20616c6c6f77616e636500000000000000000000606082015260800190565b6000821982111562000d9757634e487b7160e01b81526011600452602481fd5b500190565b60005b8381101562000db957818101518382015260200162000d9f565b83811115620006c55750506000910152565b634e487b7160e01b600052604160045260246000fd5b612a708062000df16000396000f3fe608060405234801561001057600080fd5b506004361061031f5760003560e01c8063784def8c116101a7578063c11c2e92116100ee578063e7a0367911610097578063f3fef3a311610071578063f3fef3a31461052c578063ffbd3b1f1461053f578063ffbe9f1e1461041a5761031f565b8063e7a0367914610509578063f106845414610511578063f2fde38b146105195761031f565b8063d389800f116100c8578063d389800f146104f1578063d7cb416f146104f9578063e7198474146105015761031f565b8063c11c2e92146104c3578063c8e3d18b146104cb578063cfad57a2146104de5761031f565b80638d9ab2be1161015057806396e9aff81161012a57806396e9aff814610495578063b74cd242146104a8578063b77050e7146104b05761031f565b80638d9ab2be146104725780638da5cb5b146104855780638fefda061461048d5761031f565b80638456cb59116101815780638456cb591461045a57806385f02dd614610462578063866b20181461046a5761031f565b8063784def8c146104425780637b0a47ee1461044a5780637ff36fbe146104525761031f565b806342da4eb31161026b57806365a5e30b11610214578063693a090b116101ee578063693a090b1461042a578063715018a614610432578063783478ad1461043a5761031f565b806365a5e30b1461041257806367057b6c1461041a57806368f54162146104225761031f565b80634700d305116102455780634700d305146103e257806347e7ef24146103ea5780635c975abb146103fd5761031f565b806342da4eb3146103ca57806344a3955e146103d257806346008a07146103da5761031f565b80633220d732116102cd5780633f4ba83a116102a75780633f4ba83a146103b257806340c34b58146103ba57806341275358146103c25761031f565b80633220d7321461038d5780633505b09f146103955780633b0e8f581461039f5761031f565b806314751d6a116102fe57806314751d6a1461036a578063178a8d0714610372578063260ab48c1461037a5761031f565b80627a2ae31461032457806304c9d4901461034d5780630fa4e01e14610362575b600080fd5b61033761033236600461233a565b610547565b6040516103449190612469565b60405180910390f35b610355610571565b60405161034491906128c0565b610355610600565b610337610606565b61035561061e565b61033761038836600461233a565b610624565b610337610634565b61039d610643565b005b6103376103ad36600461233a565b610680565b61039d610690565b6103376106c2565b6103376106d1565b6103556106e9565b610355610786565b61033761078c565b61039d61079b565b6103556103f8366004612237565b6107d5565b6104056108db565b604051610344919061251d565b61039d6108e4565b610355610921565b610355610927565b61033761092d565b61039d61093c565b610337610985565b61033761098b565b6103556109a3565b6103376109a9565b61039d6109b8565b6103556109ea565b6103556109f0565b61039d6104803660046123ba565b6109f6565b610337610b3a565b610355610b49565b6103376104a336600461233a565b610b4f565b610355610b5f565b6103376104be36600461233a565b610b65565b61039d610b75565b6103376104d936600461233a565b610e59565b61039d6104ec36600461221d565b610e69565b61039d610eb5565b6103376112be565b6103376112cd565b6103376112dc565b6103556112f0565b61039d61052736600461221d565b6112f6565b61035561053a366004612237565b611364565b610355611618565b6015818154811061055757600080fd5b6000918252602090912001546001600160a01b0316905081565b6016546017546040516393f1a40b60e01b815260009283926001600160a01b03909116916393f1a40b916105a99130906004016128c9565b604080518083038186803b1580156105c057600080fd5b505afa1580156105d4573d6000803e3d6000fd5b505050506040513d601f19601f820116820180604052508101906105f8919061236a565b509150505b90565b60095481565b733a3df212b7aa91aa0402b9035b098891d276572b81565b600d5481565b6010818154811061055757600080fd5b6007546001600160a01b031681565b6008546001600160a01b031633146106765760405162461bcd60e51b815260040161066d90612646565b60405180910390fd5b61067e611815565b565b6011818154811061055757600080fd5b6008546001600160a01b031633146106ba5760405162461bcd60e51b815260040161066d90612646565b610676611913565b6016546001600160a01b031681565b731cb757f1eb92f25a917ce9a92ed88c1ac073433481565b60006106f3610571565b6002546040516370a0823160e01b81526101009091046001600160a01b0316906370a0823190610727903090600401612469565b60206040518083038186803b15801561073f57600080fd5b505afa158015610753573d6000803e3d6000fd5b505050506040513d601f19601f820116820180604052508101906107779190612352565b6107819190612974565b905090565b600a5481565b6008546001600160a01b031681565b6008546001600160a01b031633146107c55760405162461bcd60e51b815260040161066d90612646565b6107cd611981565b61067e6119dc565b60006107df611a3b565b6001600160a01b03166107f0610b3a565b6001600160a01b0316146108165760405162461bcd60e51b815260040161066d90612718565b600260015414156108395760405162461bcd60e51b815260040161066d906127f5565b60026001556108466108db565b156108635760405162461bcd60e51b815260040161066d906126e1565b600061086d6106e9565b60025490915061088d9061010090046001600160a01b0316333086611a3f565b6000610897611a60565b600a54909150156108be5781600a54826108b191906129ac565b6108bb919061298c565b90505b80600a546108cc9190612974565b600a5560018055949350505050565b60025460ff1690565b6008546001600160a01b0316331461090e5760405162461bcd60e51b815260040161066d90612646565b610916611913565b61091e611a60565b50565b61271081565b600e5481565b6006546001600160a01b031681565b610944611a3b565b6001600160a01b0316610955610b3a565b6001600160a01b03161461097b5760405162461bcd60e51b815260040161066d90612718565b61067e6000611b2d565b61dead81565b734879712c5d1a98c0b88fb700daff5c65d12fd72981565b600c5481565b6003546001600160a01b031681565b6008546001600160a01b031633146109e25760405162461bcd60e51b815260040161066d90612646565b61067e611981565b600b5481565b6126ac81565b6008546001600160a01b03163314610a205760405162461bcd60e51b815260040161066d90612646565b6103e884610a2e8789612974565b610a389190612974565b1115610a565760405162461bcd60e51b815260040161066d90612889565b6126ac831015610a785760405162461bcd60e51b815260040161066d906125c9565b612710831115610a9a5760405162461bcd60e51b815260040161066d90612592565b6103e3821115610abc5760405162461bcd60e51b815260040161066d90612664565b600b869055600c859055600d849055600e839055600f829055600680546001600160a01b0319166001600160a01b0383161790556040517f750807eeb548451f82ba7f92d0202705fb1886ac44b94fc763520e47bbe2ff4b90610b2a90889088908890889088908890612943565b60405180910390a1505050505050565b6000546001600160a01b031690565b6103e881565b6013818154811061055757600080fd5b6103e381565b6014818154811061055757600080fd5b60026001541415610b985760405162461bcd60e51b815260040161066d906127f5565b6002600155610ba56108db565b15610bc25760405162461bcd60e51b815260040161066d906126e1565b6003546040516370a0823160e01b81526000916001600160a01b0316906370a0823190610bf3903090600401612469565b60206040518083038186803b158015610c0b57600080fd5b505afa158015610c1f573d6000803e3d6000fd5b505050506040513d601f19601f82011682018060405250810190610c439190612352565b9050600081118015610c6657506005546003546001600160a01b03908116911614155b15610d09576003546060805190916001600160a01b0316908290600090610c9d57634e487b7160e01b600052603260045260246000fd5b6001600160a01b039283166020918202929092010152600554825191169082906001908110610cdc57634e487b7160e01b600052603260045260246000fd5b60200260200101906001600160a01b031690816001600160a01b031681525050610d07828230611b7d565b505b600480546040516370a0823160e01b81526000926001600160a01b03909216916370a0823191610d3b91309101612469565b60206040518083038186803b158015610d5357600080fd5b505afa158015610d67573d6000803e3d6000fd5b505050506040513d601f19601f82011682018060405250810190610d8b9190612352565b9050600081118015610dae57506005546004546001600160a01b03908116911614155b15610e51576004546060805190916001600160a01b0316908290600090610de557634e487b7160e01b600052603260045260246000fd5b6001600160a01b039283166020918202929092010152600554825191169082906001908110610e2457634e487b7160e01b600052603260045260246000fd5b60200260200101906001600160a01b031690816001600160a01b031681525050610e4f828230611b7d565b505b505060018055565b6012818154811061055757600080fd5b6008546001600160a01b03163314610e935760405162461bcd60e51b815260040161066d90612646565b600880546001600160a01b0319166001600160a01b0392909216919091179055565b60026001541415610ed85760405162461bcd60e51b815260040161066d906127f5565b6002600155610ee56108db565b15610f025760405162461bcd60e51b815260040161066d906126e1565b6008546001600160a01b03163314610f2c5760405162461bcd60e51b815260040161066d90612646565b610f34611cff565b6005546040516370a0823160e01b81526000916001600160a01b0316906370a0823190610f65903090600401612469565b60206040518083038186803b158015610f7d57600080fd5b505afa158015610f91573d6000803e3d6000fd5b505050506040513d601f19601f82011682018060405250810190610fb59190612352565b905080156112b757610fc681611d33565b9050610fd181611dec565b6003546005549192506001600160a01b0391821691161461105b5761105b610ffa60028361298c565b601280548060200260200160405190810160405280929190818152602001828054801561105057602002820191906000526020600020905b81546001600160a01b03168152600190910190602001808311611032575b505050505030611b7d565b6004546005546001600160a01b039081169116146110e0576110e061108160028361298c565b6013805480602002602001604051908101604052809291908181526020018280548015611050576020028201919060005260206000209081546001600160a01b0316815260019091019060200180831161103257505050505030611b7d565b6003546040516370a0823160e01b81526000916001600160a01b0316906370a0823190611111903090600401612469565b60206040518083038186803b15801561112957600080fd5b505afa15801561113d573d6000803e3d6000fd5b505050506040513d601f19601f820116820180604052508101906111619190612352565b600480546040516370a0823160e01b81529293506000926001600160a01b03909116916370a082319161119691309101612469565b60206040518083038186803b1580156111ae57600080fd5b505afa1580156111c2573d6000803e3d6000fd5b505050506040513d601f19601f820116820180604052508101906111e69190612352565b90506000821180156111f85750600081115b156112a7576006546003546004546001600160a01b039283169263e8e33700928116911685856000803061122e42610258612974565b6040518963ffffffff1660e01b81526004016112519897969594939291906124bb565b606060405180830381600087803b15801561126b57600080fd5b505af115801561127f573d6000803e3d6000fd5b505050506040513d601f19601f820116820180604052508101906112a3919061238d565b5050505b436009556112b3611a60565b5050505b5060018055565b6004546001600160a01b031681565b6005546001600160a01b031681565b60025461010090046001600160a01b031681565b60175481565b6112fe611a3b565b6001600160a01b031661130f610b3a565b6001600160a01b0316146113355760405162461bcd60e51b815260040161066d90612718565b6001600160a01b03811661135b5760405162461bcd60e51b815260040161066d90612600565b61091e81611b2d565b600061136e611a3b565b6001600160a01b031661137f610b3a565b6001600160a01b0316146113a55760405162461bcd60e51b815260040161066d90612718565b600260015414156113c85760405162461bcd60e51b815260040161066d906127f5565b6002600155816113ea5760405162461bcd60e51b815260040161066d9061274d565b6002546040516370a0823160e01b815260009161010090046001600160a01b0316906370a0823190611420903090600401612469565b60206040518083038186803b15801561143857600080fd5b505afa15801561144c573d6000803e3d6000fd5b505050506040513d601f19601f820116820180604052508101906114709190612352565b9050808311156115135761148c61148782856129cb565b611ed2565b6002546040516370a0823160e01b81526101009091046001600160a01b0316906370a08231906114c0903090600401612469565b60206040518083038186803b1580156114d857600080fd5b505afa1580156114ec573d6000803e3d6000fd5b505050506040513d601f19601f820116820180604052508101906115109190612352565b90505b8083111561151f578092505b6115276106e9565b831115611539576115366106e9565b92505b60006115436106e9565b600a5461155090866129ac565b61155a919061298c565b9050600a5481111561156b5750600a545b80600a5461157991906129cb565b600a55600e546000906127109061159090826129cb565b61159a90876129ac565b6115a4919061298c565b905080156115dc576002546115dc9061010090046001600160a01b0316734879712c5d1a98c0b88fb700daff5c65d12fd72983611f3a565b6115e681866129cb565b60075460025491965061160b9161010090046001600160a01b03908116911687611f3a565b5060018055949350505050565b600f5481565b8015806116a65750604051636eb1769f60e11b81526001600160a01b0384169063dd62ed3e90611654903090869060040161247d565b60206040518083038186803b15801561166c57600080fd5b505afa158015611680573d6000803e3d6000fd5b505050506040513d601f19601f820116820180604052508101906116a49190612352565b155b6116c25760405162461bcd60e51b815260040161066d9061282c565b6117458363095ea7b360e01b84846040516024016116e1929190612504565b60408051601f198184030181529190526020810180517bffffffffffffffffffffffffffffffffffffffffffffffffffffffff167fffffffff0000000000000000000000000000000000000000000000000000000090931692909217909152611f59565b505050565b600081846001600160a01b031663dd62ed3e30866040518363ffffffff1660e01b815260040161177b92919061247d565b60206040518083038186803b15801561179357600080fd5b505afa1580156117a7573d6000803e3d6000fd5b505050506040513d601f19601f820116820180604052508101906117cb9190612352565b6117d59190612974565b90506117f68463095ea7b360e01b85846040516024016116e1929190612504565b50505050565b606061180b8484600085611fe8565b90505b9392505050565b601654600254611838916001600160a01b0361010090920482169116600061161e565b60165460025461185c916001600160a01b036101009092048216911660001961174a565b60065460055461187a916001600160a01b039182169116600061161e565b600654600554611899916001600160a01b03918216911660001961174a565b6006546003546118b7916001600160a01b039182169116600061161e565b6006546003546118d6916001600160a01b03918216911660001961174a565b6006546004546118f4916001600160a01b039182169116600061161e565b60065460045461067e916001600160a01b03918216911660001961174a565b61191b6108db565b6119375760405162461bcd60e51b815260040161066d9061255b565b6002805460ff191690557f5db9ee0a495bf2e6ff9c91a7834c1ba4fdd244a5e8aa4e537bd38aeae4b073aa61196a611a3b565b6040516119779190612469565b60405180910390a1565b6119896108db565b156119a65760405162461bcd60e51b815260040161066d906126e1565b6002805460ff191660011790557f62e78cea01bee320cd4e420270b5ea74000d11b0c9f74754ebdbfc544b05a25861196a611a3b565b601654601754604051632989754760e11b81526001600160a01b0390921691635312ea8e91611a0d916004016128c0565b600060405180830381600087803b158015611a2757600080fd5b505af11580156117f6573d6000803e3d6000fd5b3390565b6117f6846323b872dd60e01b8585856040516024016116e193929190612497565b6002546040516370a0823160e01b815260009182916101009091046001600160a01b0316906370a0823190611a99903090600401612469565b60206040518083038186803b158015611ab157600080fd5b505afa158015611ac5573d6000803e3d6000fd5b505050506040513d601f19601f82011682018060405250810190611ae99190612352565b905080611afa5760009150506105fd565b6000611b04610571565b9050611b0f826120a8565b6000611b19610571565b9050611b2582826129cb565b935050505090565b600080546001600160a01b038381166001600160a01b0319831681178455604051919092169283917f8be0079c531659141344cd1fd0a4f28419497f9722a3daafe3b4186f6b6457e09190a35050565b60065460405163d06ca61f60e01b81526000916001600160a01b03169063d06ca61f90611bb090879087906004016128e0565b60006040518083038186803b158015611bc857600080fd5b505afa158015611bdc573d6000803e3d6000fd5b505050506040513d6000823e601f3d908101601f19168201604052611c049190810190612260565b905060008160018351611c1791906129cb565b81518110611c3557634e487b7160e01b600052603260045260246000fd5b6020908102919091010151600654600f549192506001600160a01b0316906338ed17399087906103e890611c6990866129ac565b611c73919061298c565b8787611c8142610258612974565b6040518663ffffffff1660e01b8152600401611ca1959493929190612907565b600060405180830381600087803b158015611cbb57600080fd5b505af1158015611ccf573d6000803e3d6000fd5b505050506040513d6000823e601f3d908101601f19168201604052611cf79190810190612260565b505050505050565b601654601754604051630441a3e760e41b81526001600160a01b039092169163441a3e7091611a0d916000906004016128f9565b600b5460009015611de4576000612710600b5484611d5191906129ac565b611d5b919061298c565b9050611dd6816010805480602002602001604051908101604052809291908181526020018280548015611db757602002820191906000526020600020905b81546001600160a01b03168152600190910190602001808311611d99575b5050505050731cb757f1eb92f25a917ce9a92ed88c1ac07343346120db565b611de081846129cb565b9250505b50805b919050565b6005546000906001600160a01b0316733a3df212b7aa91aa0402b9035b098891d276572b1415611e1d575080611de7565b600d5415611de4576000612710600d5484611e3891906129ac565b611e42919061298c565b6005549091506001600160a01b0316733a3df212b7aa91aa0402b9035b098891d276572b14611dd657611dd6816011805480602002602001604051908101604052809291908181526020018280548015611ec557602002820191906000526020600020905b81546001600160a01b03168152600190910190602001808311611ea7575b505050505061dead611b7d565b601654601754604051630441a3e760e41b81526001600160a01b039092169163441a3e7091611f059185906004016128f9565b600060405180830381600087803b158015611f1f57600080fd5b505af1158015611f33573d6000803e3d6000fd5b5050505050565b6117458363a9059cbb60e01b84846040516024016116e1929190612504565b6000611fae826040518060400160405280602081526020017f5361666545524332303a206c6f772d6c6576656c2063616c6c206661696c6564815250856001600160a01b03166117fc9092919063ffffffff16565b8051909150156117455780806020019051810190611fcc919061231a565b6117455760405162461bcd60e51b815260040161066d906127ab565b60608247101561200a5760405162461bcd60e51b815260040161066d9061269b565b612013856121c7565b61202f5760405162461bcd60e51b815260040161066d90612774565b600080866001600160a01b0316858760405161204b919061244d565b60006040518083038185875af1925050503d8060008114612088576040519150601f19603f3d011682016040523d82523d6000602084013e61208d565b606091505b509150915061209d8282866121cd565b979650505050505050565b601654601754604051631c57762b60e31b81526001600160a01b039092169163e2bbb15891611f059185906004016128f9565b60065460405163d06ca61f60e01b81526000916001600160a01b03169063d06ca61f9061210e90879087906004016128e0565b60006040518083038186803b15801561212657600080fd5b505afa15801561213a573d6000803e3d6000fd5b505050506040513d6000823e601f3d908101601f191682016040526121629190810190612260565b90506000816001835161217591906129cb565b8151811061219357634e487b7160e01b600052603260045260246000fd5b6020908102919091010151600654600f549192506001600160a01b0316906318cbafe59087906103e890611c6990866129ac565b3b151590565b606083156121dc57508161180e565b8251156121ec5782518084602001fd5b8160405162461bcd60e51b815260040161066d9190612528565b80356001600160a01b0381168114611de757600080fd5b60006020828403121561222e578081fd5b61180e82612206565b60008060408385031215612249578081fd5b61225283612206565b946020939093013593505050565b60006020808385031215612272578182fd5b825167ffffffffffffffff80821115612289578384fd5b818501915085601f83011261229c578384fd5b8151818111156122ae576122ae612a24565b838102604051858282010181811085821117156122cd576122cd612a24565b604052828152858101935084860182860187018a10156122eb578788fd5b8795505b8386101561230d5780518552600195909501949386019386016122ef565b5098975050505050505050565b60006020828403121561232b578081fd5b8151801515811461180e578182fd5b60006020828403121561234b578081fd5b5035919050565b600060208284031215612363578081fd5b5051919050565b6000806040838503121561237c578182fd5b505080516020909101519092909150565b6000806000606084860312156123a1578081fd5b8351925060208401519150604084015190509250925092565b60008060008060008060c087890312156123d2578182fd5b86359550602087013594506040870135935060608701359250608087013591506123fe60a08801612206565b90509295509295509295565b6000815180845260208085019450808401835b838110156124425781516001600160a01b03168752958201959082019060010161241d565b509495945050505050565b6000825161245f8184602087016129e2565b9190910192915050565b6001600160a01b0391909116815260200190565b6001600160a01b0392831681529116602082015260400190565b6001600160a01b039384168152919092166020820152604081019190915260600190565b6001600160a01b039889168152968816602088015260408701959095526060860193909352608085019190915260a084015290921660c082015260e08101919091526101000190565b6001600160a01b03929092168252602082015260400190565b901515815260200190565b60006020825282518060208401526125478160408501602087016129e2565b601f01601f19169190910160400192915050565b60208082526014908201527f5061757361626c653a206e6f7420706175736564000000000000000000000000604082015260600190565b6020808252601b908201527f5f7769746864726177466565466163746f7220746f6f20686967680000000000604082015260600190565b6020808252601a908201527f5f7769746864726177466565466163746f7220746f6f206c6f77000000000000604082015260600190565b60208082526026908201527f4f776e61626c653a206e6577206f776e657220697320746865207a65726f206160408201526564647265737360d01b606082015260800190565b60208082526004908201526310b3b7bb60e11b604082015260600190565b60208082526018908201527f5f736c697070616765466163746f7220746f6f20686967680000000000000000604082015260600190565b60208082526026908201527f416464726573733a20696e73756666696369656e742062616c616e636520666f6040820152651c8818d85b1b60d21b606082015260800190565b60208082526010908201527f5061757361626c653a2070617573656400000000000000000000000000000000604082015260600190565b6020808252818101527f4f776e61626c653a2063616c6c6572206973206e6f7420746865206f776e6572604082015260600190565b6020808252600d908201526c05f77616e74416d74206973203609c1b604082015260600190565b6020808252601d908201527f416464726573733a2063616c6c20746f206e6f6e2d636f6e7472616374000000604082015260600190565b6020808252602a908201527f5361666545524332303a204552433230206f7065726174696f6e20646964206e6040820152691bdd081cdd58d8d9595960b21b606082015260800190565b6020808252601f908201527f5265656e7472616e637947756172643a207265656e7472616e742063616c6c00604082015260600190565b60208082526036908201527f5361666545524332303a20617070726f76652066726f6d206e6f6e2d7a65726f60408201527f20746f206e6f6e2d7a65726f20616c6c6f77616e636500000000000000000000606082015260800190565b6020808252600e908201527f4d617820666565206f6620313025000000000000000000000000000000000000604082015260600190565b90815260200190565b9182526001600160a01b0316602082015260400190565b60008382526040602083015261180b604083018461240a565b918252602082015260400190565b600086825285602083015260a0604083015261292660a083018661240a565b6001600160a01b0394909416606083015250608001529392505050565b95865260208601949094526040850192909252606084015260808301526001600160a01b031660a082015260c00190565b6000821982111561298757612987612a0e565b500190565b6000826129a757634e487b7160e01b81526012600452602481fd5b500490565b60008160001904831182151516156129c6576129c6612a0e565b500290565b6000828210156129dd576129dd612a0e565b500390565b60005b838110156129fd5781810151838201526020016129e5565b838111156117f65750506000910152565b634e487b7160e01b600052601160045260246000fd5b634e487b7160e01b600052604160045260246000fdfea2646970667358221220e748920f089cb5296e9e4f9291feecd2d087d18575f71c02ed6e1c3eba78ad6c64736f6c63430008000033",
  "devdoc": {
    "kind": "dev",
    "methods": {
      "owner()": {
        "details": "Returns the address of the current owner."
      },
      "paused()": {
        "details": "Returns true if the contract is paused, and false otherwise."
      },
      "renounceOwnership()": {
        "details": "Leaves the contract without owner. It will not be possible to call `onlyOwner` functions anymore. Can only be called by the current owner. NOTE: Renouncing ownership will leave the contract without an owner, thereby removing any functionality that is only available to the owner."
      },
      "transferOwnership(address)": {
        "details": "Transfers ownership of the contract to a new account (`newOwner`). Can only be called by the current owner."
      }
    },
    "version": 1
  },
  "userdoc": {
    "kind": "user",
    "methods": {},
    "version": 1
  },
  "storageLayout": {
    "storage": [
      {
        "astId": 7,
        "contract": "contracts/vault/StrategyMasterChefLP.sol:StrategyMasterChefLP",
        "label": "_owner",
        "offset": 0,
        "slot": "0",
        "type": "t_address"
      },
      {
        "astId": 206,
        "contract": "contracts/vault/StrategyMasterChefLP.sol:StrategyMasterChefLP",
        "label": "_status",
        "offset": 0,
        "slot": "1",
        "type": "t_uint256"
      },
      {
        "astId": 121,
        "contract": "contracts/vault/StrategyMasterChefLP.sol:StrategyMasterChefLP",
        "label": "_paused",
        "offset": 0,
        "slot": "2",
        "type": "t_bool"
      },
      {
        "astId": 8255,
        "contract": "contracts/vault/StrategyMasterChefLP.sol:StrategyMasterChefLP",
        "label": "wantAddress",
        "offset": 1,
        "slot": "2",
        "type": "t_address"
      },
      {
        "astId": 8257,
        "contract": "contracts/vault/StrategyMasterChefLP.sol:StrategyMasterChefLP",
        "label": "token0Address",
        "offset": 0,
        "slot": "3",
        "type": "t_address"
      },
      {
        "astId": 8259,
        "contract": "contracts/vault/StrategyMasterChefLP.sol:StrategyMasterChefLP",
        "label": "token1Address",
        "offset": 0,
        "slot": "4",
        "type": "t_address"
      },
      {
        "astId": 8261,
        "contract": "contracts/vault/StrategyMasterChefLP.sol:StrategyMasterChefLP",
        "label": "earnedAddress",
        "offset": 0,
        "slot": "5",
        "type": "t_address"
      },
      {
        "astId": 8263,
        "contract": "contracts/vault/StrategyMasterChefLP.sol:StrategyMasterChefLP",
        "label": "uniRouterAddress",
        "offset": 0,
        "slot": "6",
        "type": "t_address"
      },
      {
        "astId": 8274,
        "contract": "contracts/vault/StrategyMasterChefLP.sol:StrategyMasterChefLP",
        "label": "vaultChefAddress",
        "offset": 0,
        "slot": "7",
        "type": "t_address"
      },
      {
        "astId": 8276,
        "contract": "contracts/vault/StrategyMasterChefLP.sol:StrategyMasterChefLP",
        "label": "govAddress",
        "offset": 0,
        "slot": "8",
        "type": "t_address"
      },
      {
        "astId": 8280,
        "contract": "contracts/vault/StrategyMasterChefLP.sol:StrategyMasterChefLP",
        "label": "lastEarnBlock",
        "offset": 0,
        "slot": "9",
        "type": "t_uint256"
      },
      {
        "astId": 8283,
        "contract": "contracts/vault/StrategyMasterChefLP.sol:StrategyMasterChefLP",
        "label": "sharesTotal",
        "offset": 0,
        "slot": "10",
        "type": "t_uint256"
      },
      {
        "astId": 8289,
        "contract": "contracts/vault/StrategyMasterChefLP.sol:StrategyMasterChefLP",
        "label": "controllerFee",
        "offset": 0,
        "slot": "11",
        "type": "t_uint256"
      },
      {
        "astId": 8292,
        "contract": "contracts/vault/StrategyMasterChefLP.sol:StrategyMasterChefLP",
        "label": "rewardRate",
        "offset": 0,
        "slot": "12",
        "type": "t_uint256"
      },
      {
        "astId": 8295,
        "contract": "contracts/vault/StrategyMasterChefLP.sol:StrategyMasterChefLP",
        "label": "buyBackRate",
        "offset": 0,
        "slot": "13",
        "type": "t_uint256"
      },
      {
        "astId": 8304,
        "contract": "contracts/vault/StrategyMasterChefLP.sol:StrategyMasterChefLP",
        "label": "withdrawFeeFactor",
        "offset": 0,
        "slot": "14",
        "type": "t_uint256"
      },
      {
        "astId": 8313,
        "contract": "contracts/vault/StrategyMasterChefLP.sol:StrategyMasterChefLP",
        "label": "slippageFactor",
        "offset": 0,
        "slot": "15",
        "type": "t_uint256"
      },
      {
        "astId": 8319,
        "contract": "contracts/vault/StrategyMasterChefLP.sol:StrategyMasterChefLP",
        "label": "earnedToWmaticPath",
        "offset": 0,
        "slot": "16",
        "type": "t_array(t_address)dyn_storage"
      },
      {
        "astId": 8322,
        "contract": "contracts/vault/StrategyMasterChefLP.sol:StrategyMasterChefLP",
        "label": "earnedToDgngPath",
        "offset": 0,
        "slot": "17",
        "type": "t_array(t_address)dyn_storage"
      },
      {
        "astId": 8325,
        "contract": "contracts/vault/StrategyMasterChefLP.sol:StrategyMasterChefLP",
        "label": "earnedToToken0Path",
        "offset": 0,
        "slot": "18",
        "type": "t_array(t_address)dyn_storage"
      },
      {
        "astId": 8328,
        "contract": "contracts/vault/StrategyMasterChefLP.sol:StrategyMasterChefLP",
        "label": "earnedToToken1Path",
        "offset": 0,
        "slot": "19",
        "type": "t_array(t_address)dyn_storage"
      },
      {
        "astId": 8331,
        "contract": "contracts/vault/StrategyMasterChefLP.sol:StrategyMasterChefLP",
        "label": "token0ToEarnedPath",
        "offset": 0,
        "slot": "20",
        "type": "t_array(t_address)dyn_storage"
      },
      {
        "astId": 8334,
        "contract": "contracts/vault/StrategyMasterChefLP.sol:StrategyMasterChefLP",
        "label": "token1ToEarnedPath",
        "offset": 0,
        "slot": "21",
        "type": "t_array(t_address)dyn_storage"
      },
      {
        "astId": 9606,
        "contract": "contracts/vault/StrategyMasterChefLP.sol:StrategyMasterChefLP",
        "label": "masterchefAddress",
        "offset": 0,
        "slot": "22",
        "type": "t_address"
      },
      {
        "astId": 9608,
        "contract": "contracts/vault/StrategyMasterChefLP.sol:StrategyMasterChefLP",
        "label": "pid",
        "offset": 0,
        "slot": "23",
        "type": "t_uint256"
      }
    ],
    "types": {
      "t_address": {
        "encoding": "inplace",
        "label": "address",
        "numberOfBytes": "20"
      },
      "t_array(t_address)dyn_storage": {
        "base": "t_address",
        "encoding": "dynamic_array",
        "label": "address[]",
        "numberOfBytes": "32"
      },
      "t_bool": {
        "encoding": "inplace",
        "label": "bool",
        "numberOfBytes": "1"
      },
      "t_uint256": {
        "encoding": "inplace",
        "label": "uint256",
        "numberOfBytes": "32"
      }
    }
  }
}