{
  "address": "0x2f868bC458f578958525B2780A0a3a713ee1270E",
  "abi": [
    {
      "anonymous": false,
      "inputs": [
        {
          "indexed": true,
          "internalType": "address",
          "name": "strat",
          "type": "address"
        }
      ],
      "name": "AddPool",
      "type": "event"
    },
    {
      "anonymous": false,
      "inputs": [
        {
          "indexed": true,
          "internalType": "address",
          "name": "user",
          "type": "address"
        },
        {
          "indexed": true,
          "internalType": "uint256",
          "name": "pid",
          "type": "uint256"
        },
        {
          "indexed": false,
          "internalType": "uint256",
          "name": "amount",
          "type": "uint256"
        }
      ],
      "name": "Deposit",
      "type": "event"
    },
    {
      "anonymous": false,
      "inputs": [
        {
          "indexed": true,
          "internalType": "address",
          "name": "user",
          "type": "address"
        },
        {
          "indexed": true,
          "internalType": "uint256",
          "name": "pid",
          "type": "uint256"
        },
        {
          "indexed": false,
          "internalType": "uint256",
          "name": "amount",
          "type": "uint256"
        }
      ],
      "name": "EmergencyWithdraw",
      "type": "event"
    },
    {
      "anonymous": false,
      "inputs": [
        {
          "indexed": true,
          "internalType": "address",
          "name": "operator",
          "type": "address"
        },
        {
          "indexed": true,
          "internalType": "bool",
          "name": "status",
          "type": "bool"
        }
      ],
      "name": "OperatorUpdated",
      "type": "event"
    },
    {
      "anonymous": false,
      "inputs": [
        {
          "indexed": true,
          "internalType": "address",
          "name": "previousOwner",
          "type": "address"
        },
        {
          "indexed": true,
          "internalType": "address",
          "name": "newOwner",
          "type": "address"
        }
      ],
      "name": "OwnershipTransferred",
      "type": "event"
    },
    {
      "anonymous": false,
      "inputs": [
        {
          "indexed": true,
          "internalType": "address",
          "name": "user",
          "type": "address"
        },
        {
          "indexed": true,
          "internalType": "uint256",
          "name": "pid",
          "type": "uint256"
        },
        {
          "indexed": false,
          "internalType": "uint256",
          "name": "amount",
          "type": "uint256"
        }
      ],
      "name": "Withdraw",
      "type": "event"
    },
    {
      "inputs": [
        {
          "internalType": "address",
          "name": "_strat",
          "type": "address"
        }
      ],
      "name": "addPool",
      "outputs": [],
      "stateMutability": "nonpayable",
      "type": "function"
    },
    {
      "inputs": [
        {
          "internalType": "uint256",
          "name": "_pid",
          "type": "uint256"
        },
        {
          "internalType": "uint256",
          "name": "_wantAmt",
          "type": "uint256"
        }
      ],
      "name": "deposit",
      "outputs": [],
      "stateMutability": "nonpayable",
      "type": "function"
    },
    {
      "inputs": [
        {
          "internalType": "uint256",
          "name": "_pid",
          "type": "uint256"
        },
        {
          "internalType": "uint256",
          "name": "_wantAmt",
          "type": "uint256"
        },
        {
          "internalType": "address",
          "name": "_to",
          "type": "address"
        }
      ],
      "name": "depositTo",
      "outputs": [],
      "stateMutability": "nonpayable",
      "type": "function"
    },
    {
      "inputs": [
        {
          "internalType": "address",
          "name": "",
          "type": "address"
        }
      ],
      "name": "operators",
      "outputs": [
        {
          "internalType": "bool",
          "name": "",
          "type": "bool"
        }
      ],
      "stateMutability": "view",
      "type": "function"
    },
    {
      "inputs": [],
      "name": "owner",
      "outputs": [
        {
          "internalType": "address",
          "name": "",
          "type": "address"
        }
      ],
      "stateMutability": "view",
      "type": "function"
    },
    {
      "inputs": [
        {
          "internalType": "uint256",
          "name": "",
          "type": "uint256"
        }
      ],
      "name": "poolInfo",
      "outputs": [
        {
          "internalType": "contract IERC20",
          "name": "want",
          "type": "address"
        },
        {
          "internalType": "address",
          "name": "strat",
          "type": "address"
        }
      ],
      "stateMutability": "view",
      "type": "function"
    },
    {
      "inputs": [],
      "name": "poolLength",
      "outputs": [
        {
          "internalType": "uint256",
          "name": "",
          "type": "uint256"
        }
      ],
      "stateMutability": "view",
      "type": "function"
    },
    {
      "inputs": [],
      "name": "renounceOwnership",
      "outputs": [],
      "stateMutability": "nonpayable",
      "type": "function"
    },
    {
      "inputs": [],
      "name": "resetAllowances",
      "outputs": [],
      "stateMutability": "nonpayable",
      "type": "function"
    },
    {
      "inputs": [
        {
          "internalType": "uint256",
          "name": "_pid",
          "type": "uint256"
        }
      ],
      "name": "resetSingleAllowance",
      "outputs": [],
      "stateMutability": "nonpayable",
      "type": "function"
    },
    {
      "inputs": [
        {
          "internalType": "uint256",
          "name": "_pid",
          "type": "uint256"
        },
        {
          "internalType": "address",
          "name": "_user",
          "type": "address"
        }
      ],
      "name": "stakedWantTokens",
      "outputs": [
        {
          "internalType": "uint256",
          "name": "",
          "type": "uint256"
        }
      ],
      "stateMutability": "view",
      "type": "function"
    },
    {
      "inputs": [
        {
          "internalType": "address",
          "name": "newOwner",
          "type": "address"
        }
      ],
      "name": "transferOwnership",
      "outputs": [],
      "stateMutability": "nonpayable",
      "type": "function"
    },
    {
      "inputs": [
        {
          "internalType": "address",
          "name": "_operator",
          "type": "address"
        },
        {
          "internalType": "bool",
          "name": "_status",
          "type": "bool"
        }
      ],
      "name": "updateOperator",
      "outputs": [],
      "stateMutability": "nonpayable",
      "type": "function"
    },
    {
      "inputs": [
        {
          "internalType": "uint256",
          "name": "",
          "type": "uint256"
        },
        {
          "internalType": "address",
          "name": "",
          "type": "address"
        }
      ],
      "name": "userInfo",
      "outputs": [
        {
          "internalType": "uint256",
          "name": "shares",
          "type": "uint256"
        }
      ],
      "stateMutability": "view",
      "type": "function"
    },
    {
      "inputs": [
        {
          "internalType": "uint256",
          "name": "_pid",
          "type": "uint256"
        },
        {
          "internalType": "uint256",
          "name": "_wantAmt",
          "type": "uint256"
        },
        {
          "internalType": "address",
          "name": "_to",
          "type": "address"
        }
      ],
      "name": "withdraw",
      "outputs": [],
      "stateMutability": "nonpayable",
      "type": "function"
    },
    {
      "inputs": [
        {
          "internalType": "uint256",
          "name": "_pid",
          "type": "uint256"
        },
        {
          "internalType": "uint256",
          "name": "_wantAmt",
          "type": "uint256"
        }
      ],
      "name": "withdraw",
      "outputs": [],
      "stateMutability": "nonpayable",
      "type": "function"
    },
    {
      "inputs": [
        {
          "internalType": "uint256",
          "name": "_pid",
          "type": "uint256"
        }
      ],
      "name": "withdrawAll",
      "outputs": [],
      "stateMutability": "nonpayable",
      "type": "function"
    }
  ],
  "transactionHash": "0xeb92504d64b58c21dd8cb8a379f514e64b8e037afb5e8feddc4e2df7de7e15f6",
  "args": [],
  "solcInputHash": "e4301e1a08bd497065b889f4f0670643",
  "bytecode": "0x608060405234801561001057600080fd5b5061002161001c61002a565b61002e565b6001805561007e565b3390565b600080546001600160a01b038381166001600160a01b0319831681178455604051919092169283917f8be0079c531659141344cd1fd0a4f28419497f9722a3daafe3b4186f6b6457e09190a35050565b611b748061008d6000396000f3fe608060405234801561001057600080fd5b506004361061010b5760003560e01c8063715018a6116100a2578063958e2d3111610071578063958e2d31146102085780639a269e0c1461021b578063d914cd4b1461022e578063e2bbb15814610241578063f2fde38b146102545761010b565b8063715018a6146101c55780637b84daec146101cd5780638da5cb5b146101e057806393f1a40b146101f55761010b565b806323e1ad7d116100de57806323e1ad7d146101845780633505b09f14610197578063441a3e701461019f5780636d44a3b2146101b25761010b565b8063081e3eda146101105780630ad58d2f1461012e57806313e7c9d8146101435780631526fe2714610163575b600080fd5b610118610267565b6040516101259190611a47565b60405180910390f35b61014161013c366004611654565b61026d565b005b610156610151366004611553565b6102e4565b604051610125919061173f565b6101766101713660046115df565b6102f9565b6040516101259291906116e8565b6101416101923660046115df565b610332565b6101416103eb565b6101416101ad366004611633565b6104c3565b6101416101c036600461158b565b6104fe565b610141610591565b6101186101db36600461160f565b6105dc565b6101e8610792565b60405161012591906116d4565b61011861020336600461160f565b6107a1565b6101416102163660046115df565b6107be565b610141610229366004611654565b6107cb565b61014161023c366004611553565b610830565b61014161024f366004611633565b610a18565b610141610262366004611553565b610a88565b60035490565b600260015414156102995760405162461bcd60e51b81526004016102909061196f565b60405180910390fd5b60026001819055336000908152602091909152604090205460ff166102d05760405162461bcd60e51b815260040161029090611a03565b6102db838383610af6565b50506001805550565b60026020526000908152604090205460ff1681565b6003818154811061030957600080fd5b6000918252602090912060029091020180546001909101546001600160a01b0391821692501682565b61033a610edf565b6001600160a01b031661034b610792565b6001600160a01b0316146103715760405162461bcd60e51b815260040161029090611882565b60006003828154811061039457634e487b7160e01b600052603260045260246000fd5b60009182526020822060016002909202019081015481549193506103c7926001600160a01b039283169290911690610ee3565b600181015481546103e7916001600160a01b039182169116600019610ffa565b5050565b6103f3610edf565b6001600160a01b0316610404610792565b6001600160a01b03161461042a5760405162461bcd60e51b815260040161029090611882565b60005b6003548110156104c05760006003828154811061045a57634e487b7160e01b600052603260045260246000fd5b600091825260208220600160029092020190810154815491935061048d926001600160a01b039283169290911690610ee3565b600181015481546104ad916001600160a01b039182169116600019610ffa565b50806104b881611aea565b91505061042d565b50565b600260015414156104e65760405162461bcd60e51b81526004016102909061196f565b60026001556104f6828233610af6565b505060018055565b610506610edf565b6001600160a01b0316610517610792565b6001600160a01b03161461053d5760405162461bcd60e51b815260040161029090611882565b6001600160a01b038216600081815260026020526040808220805460ff191685151590811790915590519092917f966c160e1c4dbc7df8d69af4ace01e9297c3cf016397b7914971f2fbfa32672d91a35050565b610599610edf565b6001600160a01b03166105aa610792565b6001600160a01b0316146105d05760405162461bcd60e51b815260040161029090611882565b6105da60006110ac565b565b6000806003848154811061060057634e487b7160e01b600052603260045260246000fd5b60009182526020808320878452600480835260408086206001600160a01b03808b16885290855281872060016002909702909401958601548251632251caaf60e11b815292519698509396959316936344a3955e93828401939192909190829003018186803b15801561067257600080fd5b505afa158015610686573d6000803e3d6000fd5b505050506040513d601f19601f820116820180604052508101906106aa91906115f7565b90506000600387815481106106cf57634e487b7160e01b600052603260045260246000fd5b600091825260209182902060016002909202010154604080516342da4eb360e01b815290516001600160a01b03909216926342da4eb392600480840193829003018186803b15801561072057600080fd5b505afa158015610734573d6000803e3d6000fd5b505050506040513d601f19601f8201168201806040525081019061075891906115f7565b90508161076c57600094505050505061078c565b8254829061077b908390611a88565b6107859190611a68565b9450505050505b92915050565b6000546001600160a01b031690565b600460209081526000928352604080842090915290825290205481565b6104c08160001933610af6565b600260015414156107ee5760405162461bcd60e51b81526004016102909061196f565b60026001819055336000908152602091909152604090205460ff166108255760405162461bcd60e51b815260040161029090611a03565b6102db838383611109565b610838610edf565b6001600160a01b0316610849610792565b6001600160a01b03161461086f5760405162461bcd60e51b815260040161029090611882565b600260015414156108925760405162461bcd60e51b81526004016102909061196f565b60026001556001600160a01b03811660009081526005602052604090205460ff16156108d05760405162461bcd60e51b81526004016102909061184b565b60036040518060400160405280836001600160a01b031663e7a036796040518163ffffffff1660e01b815260040160206040518083038186803b15801561091657600080fd5b505afa15801561092a573d6000803e3d6000fd5b505050506040513d601f19601f8201168201806040525081019061094e919061156f565b6001600160a01b039081168252848116602092830181905284546001818101875560009687528487208651600290930201805492851673ffffffffffffffffffffffffffffffffffffffff199384161781559585015195810180549690941695909116949094179091558352600590526040909120805460ff1916821790556003546109dd9161019291611aa7565b6040516001600160a01b038216907f8c82d670bc9247c2cfb6964089bc9cff0255f9caade6fbc74a13368083e5546690600090a25060018055565b60026001541415610a3b5760405162461bcd60e51b81526004016102909061196f565b600260015560408051808201909152601081527f4465706f7369742066756e6374696f6e000000000000000000000000000000006020820152610a7d906112c3565b6104f6828233611109565b610a90610edf565b6001600160a01b0316610aa1610792565b6001600160a01b031614610ac75760405162461bcd60e51b815260040161029090611882565b6001600160a01b038116610aed5760405162461bcd60e51b815260040161029090611788565b6104c0816110ac565b600060038481548110610b1957634e487b7160e01b600052603260045260246000fd5b600091825260208083208784526004825260408085203386529092529083206003805460029094029092019450929187908110610b6657634e487b7160e01b600052603260045260246000fd5b600091825260209182902060016002909202010154604080516342da4eb360e01b815290516001600160a01b03909216926342da4eb392600480840193829003018186803b158015610bb757600080fd5b505afa158015610bcb573d6000803e3d6000fd5b505050506040513d601f19601f82011682018060405250810190610bef91906115f7565b9050600060038781548110610c1457634e487b7160e01b600052603260045260246000fd5b60009182526020918290206001600290920201015460408051632251caaf60e11b815290516001600160a01b03909216926344a3955e92600480840193829003018186803b158015610c6557600080fd5b505afa158015610c79573d6000803e3d6000fd5b505050506040513d601f19601f82011682018060405250810190610c9d91906115f7565b8354909150610cbe5760405162461bcd60e51b8152600401610290906117ce565b60008111610cde5760405162461bcd60e51b8152600401610290906118b7565b600081838560000154610cf19190611a88565b610cfb9190611a68565b905080871115610d09578096505b8615610e9357600060038981548110610d3257634e487b7160e01b600052603260045260246000fd5b600091825260209091206001600290920201015460405163f3fef3a360e01b81526001600160a01b039091169063f3fef3a390610d759033908c90600401611726565b602060405180830381600087803b158015610d8f57600080fd5b505af1158015610da3573d6000803e3d6000fd5b505050506040513d601f19601f82011682018060405250810190610dc791906115f7565b8554909150811115610ddc5760008555610dec565b8454610de9908290611aa7565b85555b85546040516370a0823160e01b81526000916001600160a01b0316906370a0823190610e1c9030906004016116d4565b60206040518083038186803b158015610e3457600080fd5b505afa158015610e48573d6000803e3d6000fd5b505050506040513d601f19601f82011682018060405250810190610e6c91906115f7565b905088811015610e7a578098505b8654610e90906001600160a01b0316898b611306565b50505b87336001600160a01b03167ff279e6a1f5e320cca91135676d9cb6e44ca8a08c0b88342bcdb1144f6511b56889604051610ecd9190611a47565b60405180910390a35050505050505050565b3390565b801580610f6b5750604051636eb1769f60e11b81526001600160a01b0384169063dd62ed3e90610f1990309086906004016116e8565b60206040518083038186803b158015610f3157600080fd5b505afa158015610f45573d6000803e3d6000fd5b505050506040513d601f19601f82011682018060405250810190610f6991906115f7565b155b610f875760405162461bcd60e51b8152600401610290906119a6565b610ff58363095ea7b360e01b8484604051602401610fa6929190611726565b60408051601f198184030181529190526020810180516001600160e01b03167fffffffff0000000000000000000000000000000000000000000000000000000090931692909217909152611325565b505050565b600081846001600160a01b031663dd62ed3e30866040518363ffffffff1660e01b815260040161102b9291906116e8565b60206040518083038186803b15801561104357600080fd5b505afa158015611057573d6000803e3d6000fd5b505050506040513d601f19601f8201168201806040525081019061107b91906115f7565b6110859190611a50565b90506110a68463095ea7b360e01b8584604051602401610fa6929190611726565b50505050565b600080546001600160a01b0383811673ffffffffffffffffffffffffffffffffffffffff19831681178455604051919092169283917f8be0079c531659141344cd1fd0a4f28419497f9722a3daafe3b4186f6b6457e09190a35050565b60006003848154811061112c57634e487b7160e01b600052603260045260246000fd5b600091825260208083208784526004825260408085206001600160a01b0388811687529084529481902081518083019092526008825267506f6f6c496e666f60c01b9382019390935260029390930201600181015490945090926111919291166113b4565b831561127a5781546111ae906001600160a01b03163330876113f9565b6000600386815481106111d157634e487b7160e01b600052603260045260246000fd5b60009182526020909120600160029092020101546040516311f9fbc960e21b81526001600160a01b03909116906347e7ef24906112149087908990600401611726565b602060405180830381600087803b15801561122e57600080fd5b505af1158015611242573d6000803e3d6000fd5b505050506040513d601f19601f8201168201806040525081019061126691906115f7565b8254909150611276908290611a50565b8255505b84836001600160a01b03167f90890809c654f11d6e72a28fa60149770a0d11ec6c92319d6ceb2bb0a4ea1a15866040516112b49190611a47565b60405180910390a35050505050565b6104c0816040516024016112d7919061174a565b60408051601f198184030181529190526020810180516001600160e01b031663104c13eb60e21b17905261141a565b610ff58363a9059cbb60e01b8484604051602401610fa6929190611726565b600061137a826040518060400160405280602081526020017f5361666545524332303a206c6f772d6c6576656c2063616c6c206661696c6564815250856001600160a01b031661143b9092919063ffffffff16565b805190915015610ff5578080602001905181019061139891906115c3565b610ff55760405162461bcd60e51b815260040161029090611925565b6103e782826040516024016113ca92919061175d565b60408051601f198184030181529190526020810180516001600160e01b031663319af33360e01b17905261141a565b6110a6846323b872dd60e01b858585604051602401610fa693929190611702565b80516a636f6e736f6c652e6c6f67602083016000808483855afa5050505050565b606061144a8484600085611454565b90505b9392505050565b6060824710156114765760405162461bcd60e51b815260040161029090611805565b61147f85611514565b61149b5760405162461bcd60e51b8152600401610290906118ee565b600080866001600160a01b031685876040516114b791906116b8565b60006040518083038185875af1925050503d80600081146114f4576040519150601f19603f3d011682016040523d82523d6000602084013e6114f9565b606091505b509150915061150982828661151a565b979650505050505050565b3b151590565b6060831561152957508161144d565b8251156115395782518084602001fd5b8160405162461bcd60e51b8152600401610290919061174a565b600060208284031215611564578081fd5b813561144d81611b1b565b600060208284031215611580578081fd5b815161144d81611b1b565b6000806040838503121561159d578081fd5b82356115a881611b1b565b915060208301356115b881611b30565b809150509250929050565b6000602082840312156115d4578081fd5b815161144d81611b30565b6000602082840312156115f0578081fd5b5035919050565b600060208284031215611608578081fd5b5051919050565b60008060408385031215611621578182fd5b8235915060208301356115b881611b1b565b60008060408385031215611645578182fd5b50508035926020909101359150565b600080600060608486031215611668578081fd5b8335925060208401359150604084013561168181611b1b565b809150509250925092565b600081518084526116a4816020860160208601611abe565b601f01601f19169290920160200192915050565b600082516116ca818460208701611abe565b9190910192915050565b6001600160a01b0391909116815260200190565b6001600160a01b0392831681529116602082015260400190565b6001600160a01b039384168152919092166020820152604081019190915260600190565b6001600160a01b03929092168252602082015260400190565b901515815260200190565b60006020825261144d602083018461168c565b600060408252611770604083018561168c565b90506001600160a01b03831660208301529392505050565b60208082526026908201527f4f776e61626c653a206e6577206f776e657220697320746865207a65726f206160408201526564647265737360d01b606082015260800190565b60208082526010908201527f757365722e736861726573206973203000000000000000000000000000000000604082015260600190565b60208082526026908201527f416464726573733a20696e73756666696369656e742062616c616e636520666f6040820152651c8818d85b1b60d21b606082015260800190565b60208082526011908201527f4578697374696e67207374726174656779000000000000000000000000000000604082015260600190565b6020808252818101527f4f776e61626c653a2063616c6c6572206973206e6f7420746865206f776e6572604082015260600190565b60208082526010908201527f736861726573546f74616c206973203000000000000000000000000000000000604082015260600190565b6020808252601d908201527f416464726573733a2063616c6c20746f206e6f6e2d636f6e7472616374000000604082015260600190565b6020808252602a908201527f5361666545524332303a204552433230206f7065726174696f6e20646964206e6040820152691bdd081cdd58d8d9595960b21b606082015260800190565b6020808252601f908201527f5265656e7472616e637947756172643a207265656e7472616e742063616c6c00604082015260600190565b60208082526036908201527f5361666545524332303a20617070726f76652066726f6d206e6f6e2d7a65726f60408201527f20746f206e6f6e2d7a65726f20616c6c6f77616e636500000000000000000000606082015260800190565b60208082526024908201527f4f70657261746f723a2063616c6c6572206973206e6f7420746865206f70657260408201526330ba37b960e11b606082015260800190565b90815260200190565b60008219821115611a6357611a63611b05565b500190565b600082611a8357634e487b7160e01b81526012600452602481fd5b500490565b6000816000190483118215151615611aa257611aa2611b05565b500290565b600082821015611ab957611ab9611b05565b500390565b60005b83811015611ad9578181015183820152602001611ac1565b838111156110a65750506000910152565b6000600019821415611afe57611afe611b05565b5060010190565b634e487b7160e01b600052601160045260246000fd5b6001600160a01b03811681146104c057600080fd5b80151581146104c057600080fdfea26469706673582212202058c1a38fba86841b44bca19f9a0356bc158e2bb306042fd2e4c30d798f029364736f6c63430008000033",
  "devdoc": {
    "kind": "dev",
    "methods": {
      "addPool(address)": {
        "details": "Add a new want to the pool. Can only be called by the owner."
      },
      "owner()": {
        "details": "Returns the address of the current owner."
      },
      "renounceOwnership()": {
        "details": "Leaves the contract without owner. It will not be possible to call `onlyOwner` functions anymore. Can only be called by the current owner. NOTE: Renouncing ownership will leave the contract without an owner, thereby removing any functionality that is only available to the owner."
      },
      "transferOwnership(address)": {
        "details": "Transfers ownership of the contract to a new account (`newOwner`). Can only be called by the current owner."
      }
    },
    "version": 1
  },
  "userdoc": {
    "kind": "user",
    "methods": {},
    "version": 1
  },
  "storageLayout": {
    "storage": [
      {
        "astId": 7,
        "contract": "contracts/vault/VaultChef.sol:VaultChef",
        "label": "_owner",
        "offset": 0,
        "slot": "0",
        "type": "t_address"
      },
      {
        "astId": 206,
        "contract": "contracts/vault/VaultChef.sol:VaultChef",
        "label": "_status",
        "offset": 0,
        "slot": "1",
        "type": "t_uint256"
      },
      {
        "astId": 9248,
        "contract": "contracts/vault/VaultChef.sol:VaultChef",
        "label": "operators",
        "offset": 0,
        "slot": "2",
        "type": "t_mapping(t_address,t_bool)"
      },
      {
        "astId": 9931,
        "contract": "contracts/vault/VaultChef.sol:VaultChef",
        "label": "poolInfo",
        "offset": 0,
        "slot": "3",
        "type": "t_array(t_struct(PoolInfo)9927_storage)dyn_storage"
      },
      {
        "astId": 9938,
        "contract": "contracts/vault/VaultChef.sol:VaultChef",
        "label": "userInfo",
        "offset": 0,
        "slot": "4",
        "type": "t_mapping(t_uint256,t_mapping(t_address,t_struct(UserInfo)9921_storage))"
      },
      {
        "astId": 9942,
        "contract": "contracts/vault/VaultChef.sol:VaultChef",
        "label": "strats",
        "offset": 0,
        "slot": "5",
        "type": "t_mapping(t_address,t_bool)"
      }
    ],
    "types": {
      "t_address": {
        "encoding": "inplace",
        "label": "address",
        "numberOfBytes": "20"
      },
      "t_array(t_struct(PoolInfo)9927_storage)dyn_storage": {
        "base": "t_struct(PoolInfo)9927_storage",
        "encoding": "dynamic_array",
        "label": "struct VaultChef.PoolInfo[]",
        "numberOfBytes": "32"
      },
      "t_bool": {
        "encoding": "inplace",
        "label": "bool",
        "numberOfBytes": "1"
      },
      "t_contract(IERC20)2187": {
        "encoding": "inplace",
        "label": "contract IERC20",
        "numberOfBytes": "20"
      },
      "t_mapping(t_address,t_bool)": {
        "encoding": "mapping",
        "key": "t_address",
        "label": "mapping(address => bool)",
        "numberOfBytes": "32",
        "value": "t_bool"
      },
      "t_mapping(t_address,t_struct(UserInfo)9921_storage)": {
        "encoding": "mapping",
        "key": "t_address",
        "label": "mapping(address => struct VaultChef.UserInfo)",
        "numberOfBytes": "32",
        "value": "t_struct(UserInfo)9921_storage"
      },
      "t_mapping(t_uint256,t_mapping(t_address,t_struct(UserInfo)9921_storage))": {
        "encoding": "mapping",
        "key": "t_uint256",
        "label": "mapping(uint256 => mapping(address => struct VaultChef.UserInfo))",
        "numberOfBytes": "32",
        "value": "t_mapping(t_address,t_struct(UserInfo)9921_storage)"
      },
      "t_struct(PoolInfo)9927_storage": {
        "encoding": "inplace",
        "label": "struct VaultChef.PoolInfo",
        "members": [
          {
            "astId": 9924,
            "contract": "contracts/vault/VaultChef.sol:VaultChef",
            "label": "want",
            "offset": 0,
            "slot": "0",
            "type": "t_contract(IERC20)2187"
          },
          {
            "astId": 9926,
            "contract": "contracts/vault/VaultChef.sol:VaultChef",
            "label": "strat",
            "offset": 0,
            "slot": "1",
            "type": "t_address"
          }
        ],
        "numberOfBytes": "64"
      },
      "t_struct(UserInfo)9921_storage": {
        "encoding": "inplace",
        "label": "struct VaultChef.UserInfo",
        "members": [
          {
            "astId": 9920,
            "contract": "contracts/vault/VaultChef.sol:VaultChef",
            "label": "shares",
            "offset": 0,
            "slot": "0",
            "type": "t_uint256"
          }
        ],
        "numberOfBytes": "32"
      },
      "t_uint256": {
        "encoding": "inplace",
        "label": "uint256",
        "numberOfBytes": "32"
      }
    }
  }
}